:020000040000FA
:10000000F80B002051070000F5070000392600001A
:10001000432600004D260000612600005726000000
:10002000000000000000000000000000410F000080
:10003000F507000000000000ED0E0000F5070000CD
:100040000000000000000000000000001913000084
:1000500000000000F50700000000000000000000A4
:10006000F5070000F5070000F5070000F5070000A0
:1000700000000000F5070000F5070000F50700008C
:10008000F5070000F5070000000000000000000078
:10009000F5070000F5070000000000000000000068
:1000A000F50700000000000000000000F507000058
:1000B000F5070000F5070000F5070000F507000050
:1000C000F5070000F5070000F5070000F507000040
:1000D000F507000000000000F50700000000000028
:1000E000F507000000000000F50700000000000018
:1000F000F507000000000000000000000000000004
:1001000000000000F50700000000000000000000F3
:1001100000000000000000000000000000000000DF
:1001200000000000F50700000000000000000000D3
:1001300000000000000000000000000000000000BF
:10014000F5070000407C0000201E00203E0000005B
:10015000A0240000400C002000000000A0240000AB
:10016000200C002000000000201F00209C06000042
:10017000400C002078040000200C00200800000043
:10018000000C00200800000000015F5F000000007C
:10019000FE0F0000D50F000000040000000000006A
:1001A000000000000000000000000000000000004F
:1001B000402000200000000001015F5F03010000FB
:1001C0001F01000081020000000800000000000084
:1001D000010000000100000000000000000000001D
:1001E000881000200000000070000000305800005F
:1001F00080000000000F000001000000410300002B
:100200000100000001015F5F040100001F01000008
:10021000490600000005000000000000000000008A
:10022000010000000000000000000000881800200D
:10023000000000003B5800004000000005070000DF
:0C02400001000000350500000100000076
:1002600038B50025054C29462046D4F80024C4F8AA
:10027000045402F0F8F9C4F8005438BD400C0020D2
:1002800008B500F015F940B900F03CF900F048F964
:1002900018B9BDE8084002F007BC08BD13B5114607
:1002A0000022CDE9002242680346302A04683ED18C
:1002B00094F82C20022A18D01AB900F01BF902B0C9
:1002C00010BD1E482468D0F80404013ACDE900406E
:1002D000072A2FD8DFE802F004090D12171C212687
:1002E0006A46184600F003F9E9E7184600F0EDF811
:1002F000E5E76A46184600F0EBF8E0E76A4618467C
:1003000000F0E0F8DBE76A46184600F0E4F8D6E7CC
:100310006A46184600F0E2F8D1E76A46184600F04F
:10032000E0F8CCE76A46184600F0DEF8C7E76FF061
:100330008000C4E76FF08500C1E700BF400C0020DB
:100340002DE9F04F056804469FB0002D40F0AA80CB
:100350002022294602A802F086F912AF202229465F
:100360000AA802F080F930222946384602F07BF9CB
:10037000A26904F118039846B2B10426A26A04F1F6
:100380002803EAB10425EEB96FF0830630461FB0AA
:10039000BDE8F08F002EF1D053F8041D3246013E27
:1003A0000029F7D01646E9E70326F5E7002DEAD045
:1003B00053F8041D2A46013D0029F7D01546E2E70F
:1003C0000325F5E730233A460021606802F094F9EE
:1003D0003028D9D14FF00109CDE90270334F0DF12A
:1003E000080A04F10C0B4E45D7F800141CD10DF18E
:1003F00028094B46002008EB850EC64533D108B1CD
:10040000C7F80014A3683146C7F804340AAA2B467B
:1004100002A8FFF743FF00270646BD4209F108097D
:1004200038D1FFF71DFFB1E75BF8043FC1F58062EB
:10043000D81C20F00300904204D9FFF711FF6FF0A1
:100440008C06A3E70844CA19C7F800044946606847
:10045000019202F051F9019ACAF80C0009F1010960
:100460004AF8082FBFE758F804CFC1F5806A0CF1AD
:10047000030222F00302524503F1080305D878185D
:1004800043E9020C11440120B7E70028D5D0C7F892
:100490000014D2E7394659E90223606802F036F9C0
:1004A0000137BAE76FF0850670E700BF400C002007
:1004B00008B528220021024802F0D5F8002008BD26
:1004C000481000206FF0850070476FF0850070477E
:1004D0006FF0850070476FF0850070476FF0850002
:1004E00070476FF0850070476FF0850070476FF0C0
:1004F00085007047D1E9000102F0B6BAC0E90021D9
:100500007047000010B5044C0F222046034902F04A
:1005100023FB204610BD00BF711000202C070000F7
:1005200008B50121024802F039FA002008BD00BFD9
:1005300070100020F0B503680546B3F57D7FA7B0C5
:1005400007D040F2F532934207D06FF0850027B014
:10055000F0BD00F0C7FB0020F9E700243C22214653
:1005600007A8CDE90244CDE90444069402F07BF8E3
:100570003C22214617A8169402F075F8AA69019446
:1005800005F1180302B30426AA6A05F128033AB359
:100590000424731E012B52D8012C50D804230021AF
:1005A00068680DEB030202F0A7F804281AD06FF078
:1005B0008000CCE7002EE7D053F8041D3246013E00
:1005C0000029F7D01646DFE70326F5E7002CE0D038
:1005D00053F8041D2246013C0029F7D01446D8E701
:1005E0000324F5E7022E16D12E69402E29D806AF36
:1005F00033463A460121686802F07EF88642D6D139
:10060000CDE9027602A944B92246019800F07CFBAC
:10061000044620469BE70021F5E7EB69402BC6D84E
:1006200016AACDE90423019804AA00F06DFBDDE9C8
:10063000042304460021686802F068F8E9E7012015
:1006400085E76FF0890082E7002070472DE9F04FC1
:1006500000259BB004A8049502F072F84FF018082A
:100660000646DFF8C090304FB54201D1002024E0AB
:1006700008FB05FA049B03EB0A02116949454FD1B7
:100680000021946808A853F80A20FFF737FF2022BA
:10069000002112A801F0E7FF0DF10E02049B019268
:1006A00007AA53440092D3F814B0202106AB05AA40
:1006B0000AA8D84720B16FF092001BB0BDE8F08FB8
:1006C0004FF6F8714FF6FF72099B1593069B8B420C
:1006D00088BF1346ADF84A30079B089A1793BDF8B8
:1006E0000E30ADF84830049B53441B69139313F04C
:1006F000FF0308BF1A4648235C4304F124000DEBB6
:1007000003013C4414923844202202F025FA20468A
:10071000059A0AA902F020FA059B2362012363646B
:100720000135A1E701010080881D00206D6265642C
:1007300020544C5320332E332E3000000000000094
:10074000701E00000100000000F03ABB0000000035
:1007500008B572B61E4A1F4B9A601F4B83F3098877
:100760001E4B83F30A8883F30B881D4B16A1D1E936
:100770000001C3E9000100F09FF81A4B1A498B42AF
:1007800012D30020194B1A498B4218D301F014FFE1
:10079000186850F82240586840F8224001329868A2
:1007A0008242F5D30C33EAE70022F8E71C6844F8EC
:1007B000220001325C68A242F8D30833E4E7002249
:1007C000F8E700BFAFF30080A5EDF5FEA5EDF5FE5F
:1007D0000000000000ED00E0F80B00200004002005
:1007E000F80B0020440100006801000068010000CF
:1007F00088010000FFF7A8FFFEE74FF47F03D3F85E
:100800003001D3F83431BFF34F8FC0F30B00A0F1A8
:1008100009035842584170474FF47F02D2F83031F3
:10082000D2F83401BFF34F8FC3F30B03092B03D16D
:10083000431E5842584170470020704708B5EFF3F7
:100840001083012B0C4A07D1126ABFF34F8F511C42
:100850004A424A41104608BDFFF7CFFF00B172B6C9
:10086000126ABFF34F8F531C5A425A41FFF7C5FF1C
:100870000028EFD062B6EDE70080FF0008B5EFF387
:100880001083012B0B4A06D1D269BFF34F8F02F0C0
:100890000102104608BDFFF7B0FF00B172B6D26981
:1008A000BFF34F8F02F00102FFF7A7FF0028F0D03F
:1008B00062B6EEE70080FF00694A10B5D2F8D0308A
:1008C00043F00203C2F8D030FFF797FF30B14FF08A
:1008D00050230022C3F81421C3F81821FFF79CFF0E
:1008E00028B101225F4BC3F8382AC3F878254FF4AA
:1008F0007F02D2F83031D2F83421BFF34F8FC3F3E7
:100900000B03092B05D1012A1EBF0122554BC3F849
:100910007825FFF781FF18B10E22534BC3F8E42E60
:10092000FFF76BFF30B100224E4BC3F80C270122BA
:10093000C3F810270022D30003F57F03D3F8001378
:10094000BFF34F8F013108D0D3F800130132D3F831
:100950000433B2F5807F0B60EDD1EFF31084FFF725
:100960008DFF00284DD0BFF34F8F404BD3F80024AC
:10097000012AFBD1C3F80425D3F80024012AFBD1B6
:10098000012C03D0FFF739FF00B172B6FFF776FFF5
:1009900058B1374AD36923F00103D361BFF34F8FB6
:1009A000324AD2F80034012BFBD1FFF747FF68B180
:1009B0002F4A136A23F0FF0343F020031362BFF3AF
:1009C0004F8F2A4AD2F80034012BFBD1012C03D0DF
:1009D000FFF713FF00B162B60022244BC3F80425D1
:1009E000D3F80024012AFBD1BFF34F8F1C49214BC0
:1009F000CA6802F4E0621343CB60BFF34F8F00BFBD
:100A0000FDE7FFF71BFF0028ADD1154AD2F88C3067
:100A100043F44063C2F88C304FF47F03D3F83021A5
:100A2000D3F83431BFF34F8FC2F30B02092A16D12A
:100A3000013B022B02D8104AD35C83B10C480F490A
:100A400003680A4A8B420CBF5A230023C2F8103EA7
:100A5000C36A8B420CBF5A230023C2F8003E10BD6C
:100A600000ED00E00040005000A003500090035053
:100A70000080FF000400FA0564240000FA50FA50D8
:100A8000003A18BF0122003918BF0121036889000C
:100A9000074841EA4201186359605A6842F001026E
:100AA0005A60BFF34F8FBFF36F8F0020704700BFB6
:100AB00004AAFF004B6830B513F01F052DD1026862
:100AC0000C681068C0F30720844226D25068556035
:100AD00094600C7C23F01F0304F001041C438B7C06
:100AE000DB0003F018031C434B7C5B0003F00603A0
:100AF0002343D3608B68013B23F01F04CB685B006A
:100B000003F00E03234343F0010313615060BFF36E
:100B10004F8FBFF36F8F284630BD0120FCE703687D
:100B200000205A68C9B258609960D86018615A604C
:100B3000704770B50546002403681E68C6F3072693
:100B4000B44201D1002070BD21462846FFF7E7FFDF
:100B50000134F5E70722024BC3F80423704700BFB6
:100B6000003000500022074BC3F80021D3F80011D9
:100B7000C3F80421D3F80411C3F80821D3F80831CD
:100B8000704700BF0030005000231720094A03F5CA
:100B9000C0710133202B42F82100F8D10023172027
:100BA000044A03F5E0710133202B42F82100F8D10B
:100BB000704700BF0030005010B59DF80840C00BD2
:100BC00043EA0423064CC90B43EA0213884200D9C6
:100BD00010BDC2B202F5C07244F822300130F5E710
:100BE0000030005010B59DF8084000F1604043EA25
:100BF000042301F16041074C400B490B43EA021307
:100C0000884200D910BDC2B202F5E07244F8223029
:100C10000130F5E700300050C0F30E03C3F5004388
:100C2000B3FA83F3C3F11B03064AC0F3C730DBB248
:100C300040F4807043F48073C2F80005C2F80435B4
:100C4000704700BF00300050C0037047C00300F57C
:100C5000FF407F307047002070471F2070474FF4DF
:100C60000040704700F57F40C030400370470000EF
:100C70004303014818447047FF1FF81F4020704786
:100C80005F2070474FF4005070470000044BC0F3E2
:100C90000730090200F5007043F82010704700BFCC
:100CA0000030005008B501F0F9F968B901F0BEFF55
:100CB00058B9074AD36823F008031B041B0C43F000
:100CC000BF6343F40033D36008BD45F22350FBE714
:100CD00000ED00E0002070470020704700207047C2
:100CE00070470000BFF34F8F0549064BCA6802F4F6
:100CF000E0621343CB60BFF34F8F00BFFDE700BF3F
:100D000000ED00E00400FA050346084611460BB961
:100D100000F014B803207047BFF34F8F0549064B0E
:100D2000CA6802F4E0621343CB60BFF34F8F00BF89
:100D3000FDE700BF00ED00E00400FA0538B54368A8
:100D40000C2B30D14B68042B2DD14FF0FF330468AE
:100D50000D6821682B6031B3A26822B306230120FD
:100D600000F081F9F8B96168104B99420DD9A26879
:100D70000F485318834202D9F438834210D82068B0
:100D800001F0EAFE0020286038BD0A4B99420AD9DA
:100D9000A26809488B188342F1D90730814202D9F1
:100DA00006488342EBD90220EEE700BFFF01FF00B7
:100DB0002C02FF002F01FF003801FF004C01FF0053
:100DC000FFF7AABF08B5114B83F30A88104800F05B
:100DD0006BFA58B9FFF766FF40B9FFF77BFF28B9F8
:100DE000FFF77AFF28B1FFF779FF20B1FFF7E8FF9F
:100DF00005E0FFF775FF00F0EBF800F0BFFB00F037
:100E0000D3F800F03FF8002008BD00BF0004002028
:100E100040240020F8B501F00C030C2B0CBF154644
:100E200005464A060C4601F008061AD58B0658BF3F
:100E30002835AB6913F8027CB6FA86F35B09B3EB8D
:100E4000D71F01D0FFF7BCFF402F15D0412F0DD188
:100E500000F012FD04460146094800F0AFFB2046B1
:100E6000F8BDFFF7ADFF0EB9FFF7AAFF6FF08300E3
:100E7000286000F064FEF2E7284600F085FBEEE70C
:100E8000F80B002041DF704770B572B6BFF36F8F6B
:100E90001446EFF30B855FF0000C002A1FBF8CF3A4
:100EA0000B886C46954683F30B880F4A0123136029
:100EB00062B6BFF36F8F0E4600F02AFD72B6BFF325
:100EC0006F8F314600F03AFD5FF0000C002C1EBF22
:100ED0008CF30B88A54685F30B88034C0025256011
:100EE00062B6BFF36F8F70BD44240020402010EA2B
:100EF0000E0023D001B500F0C3FFBDE804408842D6
:100F00001CD072B6BFF36F8FEFF309821EF020037F
:100F10001CBF22E9F00F083A80E80440B1E8044021
:100F20001EF020031CBF0832B2E8F00F0B6882F3FA
:100F3000098883F30B8862B6BFF36F8F7047000098
:100F4000EFF308807146EFF30982EFF30B830CB4E3
:100F500006B4FFF75FFF864606BC0CBC00F0080035
:100F600001F00801401A01DC12DB70470CB41EF0DE
:100F700020031CBF2DE9F00FBDF1080D094C2546DB
:100F800026462746A046A146A246A34630B470474F
:100F900030BC1EF020031CBF1DF1080DBDE8F00F92
:100FA00006BC7047A5EDF5FE084BDA6882F07F427B
:100FB00082F47F0242F48042DA6000221A765A7686
:100FC000DA76DA77602283F82220704700ED00E0BD
:100FD00070470000009A0A4B9A420FD101229043B9
:100FE0000146024603460446054606460746804635
:100FF000814682468346844686460447FEE70000D3
:10100000A5EDF5FEF0B510B943F6DA30F0BD0029D4
:10101000FAD000220C2418258368C3F3802343F000
:1010200002030B60016A8A4201D10020EEE704FB53
:1010300002F3D0E9067603EB870305FB063303448E
:101040009B6B1B07E0D40132EDE7EFF3148381F0D3
:101050000201C1F3400161F3000383F31488BFF37D
:101060006F8F002070472DE9F0410E461546002A8B
:101070004AD0C4074BD480F00204C4F34004A40057
:1010800003F00602062A4AD144F00104224629460A
:10109000304604F009FBB8BB46E800F205EB060851
:1010A000100E120208F1FF3747E800F34FEA136110
:1010B00066D51B0264D5884262D046E800F547E851
:1010C00000F7FFF7C8FD2D0E85424FEA176734D3AE
:1010D000FFF7C3FD874230D82846FFF7B7FD224609
:1010E000C6F101010144304604F0DEFA002847D081
:1010F0000135AF4218D83846FFF7A6FD2246A8EBC7
:10110000000104F0D1FAD8B30020BDE8F081EFF37C
:101110009484A40004F0040444F01204B0E7990796
:1011200031D544F00804B1E72846FFF78DFD0646A7
:10113000FFF795FD22460146D5E7FFF79FFD854263
:101140001ED3FFF79DFD87421AD82846FFF790FD72
:101150002246C6F101010144304604F0A5FA78B1F7
:101160000135AF4203D83846FFF77CFDC6E7284675
:10117000FFF778FD0646FFF785FD22460146EBE7BF
:101180006FF07F00C1E74CF2DA20BEE7F0B53B4CD0
:1011900087B03B48FFF7CDFC236801255A1C01931B
:1011A000384B2260DA681B694FF4407603930023C2
:1011B000334801A902920495ADF814608DF81630F9
:1011C000FFF778FC18B143F6DA3007B0F0BD2368BA
:1011D0008DF816005A1C01932B4B294802932B4B78
:1011E00001A9CDE903352260ADF81460FFF762FC78
:1011F0000028E8D123688DF816005A1C0193244B6F
:101200001F480293234B01A9CDE903352260ADF8B5
:101210001460FFF74FFC0028D5D1022740F20116D9
:1012200023688DF816005A1C01931B4B1448029337
:101230001A4B01A9226003930497ADF81460FFF7DD
:1012400039FC0028BFD123688DF816005A1C019381
:10125000134B0B480293134B01A92260CDE90337CE
:10126000ADF81460FFF726FC04460028ABD12A46EF
:1012700029460348FFF704FC2046A6E7482400203F
:10128000241E002068240000A0240000205A000032
:101290004007000040070000200C0020400C002008
:1012A000000C0020200C002010B5044600F074F85B
:1012B00000F082F810B143F6DA3010BD00F09EF86D
:1012C0000028F8D1FFF762FF0028F4D10223236041
:1012D000F3E7884206D0830706D581F00200C0F309
:1012E00040007047002070470120704708B5084B48
:1012F000D3F80021D3F80821D3F80431FFF732FCEA
:101300000822044BC3F88021BDE80840FFF758BD10
:101310000030005000E100E0FFF7E8FFFEE70000CA
:101320000020034BD8765A6A42F470225A62704702
:1013300000ED00E00349044BCA68002092B2134359
:10134000CB60704700ED00E00800FA050020704710
:1013500000224FF0FF30094B02F1A0010132102AA8
:1013600043F82100F8D1D3F88022002022F00802AF
:10137000C3F88022D3F88032704700BF00E100E05C
:1013800008B5FFF7E7FB0822024BC3F880211A607B
:10139000002008BD00E100E0064BD3F8D02022F089
:1013A0000102C3F8D020D3F8D02042F00202C3F8E3
:1013B000D020704700ED00E037B501250C4CFFF759
:1013C000E3FBD4E90101072300220095FFF7F4FBBA
:1013D00007230022074908480095FFF703FC21690D
:1013E000E0680139FFF718FC002003B030BD00BFF2
:1013F00068240000FFFF03200080002010B50021BA
:101400004248FFF743FC00214FF05020FFF73EFC1D
:1014100000213F48FFF73AFC00213E48FFF736FC29
:1014200000213D48FFF732FC00213C48FFF72EFC2D
:1014300000213B48FFF72AFC00213A48FFF726FC31
:1014400000213948FFF722FC00213848FFF71EFC35
:1014500000213748FFF71AFC00213648FFF716FC39
:1014600000213548FFF712FC00213448FFF70EFC3D
:1014700000213348FFF70AFC00213248FFF706FC41
:1014800000213148FFF702FC00213048FFF7FEFB46
:1014900000212F48FFF7FAFB00212E48FFF7F6FB4B
:1014A00000212D48FFF7F2FB00212C48FFF7EEFB4F
:1014B00000212B48FFF7EAFB2A4C00212A48FFF7BE
:1014C000E5FB00212948FFF7E1FB20460021FFF75B
:1014D000DDFB00212648FFF7D9FB00212548FFF757
:1014E000D5FB00200122244BC3F88004C3F88424D8
:1014F000C3F8C004C3F8C42440F20112C4F8402564
:101500004FF48072C3F8402410BD00BF004000506B
:10151000008000500090005000A0005000B000502B
:1015200000E0005000F00050000001500010015099
:1015300000400150005001500070015000800150E7
:1015400000B0015000C0015000D0015000E0015037
:1015500000F0015000000250001002500020025024
:1015600000300250009003500040025000A0025092
:101570000025845000A00350003000500122014B90
:101580001A6070474C24002010B50446094B22898C
:101590001B6861685868062350F8140CFFF763FD58
:1015A00028B9054B1B68012B01D100F021F9032359
:1015B000236010BD242900204C24002004460D4641
:1015C000A5462847036923B119604FF0EE33436104
:1015D000704703689962704704484FF0805101607A
:1015E000BFF34F8FBFF36F8F7047000004ED00E033
:1015F0002DE9F84304461E460068114B9046A26848
:10160000A0F1080540E90233503890420F4601D25C
:10161000FFF7D6FBA5F1480948220021484601F012
:1016200022F84FF0807345F8043C6FF0020345E95F
:10163000036745F8208CC4E90093BDE8F88300BF38
:10164000A5EDF5FE836883F30B880368283383F3E5
:101650000988406870470000054A1368013303F0A9
:1016600007031360034A0133801A03EBC00070477D
:10167000502400205424002018B1024B013803EB01
:10168000D00070475424002010B5064800F066FCD6
:10169000044628B18022002100F0E5FF00232360EA
:1016A000204610BD54240020014608B5044800F02F
:1016B00066FC00280CBF6FF0FC00002008BD00BFD6
:1016C00054240020014610B5EFF3108472B603488D
:1016D00000F04FFC84F3108810BD00BF542400209C
:1016E000F0B50346EFF3108672B60024426C00F1A9
:1016F0004405204662B940B10568012CEA6F0260DA
:10170000284602BF5A698A435A6186F31088F0BDA1
:1017100097683F687F698F4204BF2846013402F111
:101720007C05D26FE6E7000030B5094C02466168DF
:101730000023084640B105686D68954205D11BB18C
:10174000826860609A60816030BD03468068F1E71E
:101750000029002003689A68DB6812F4806F05D1C5
:101760008B422CBF00206FF0FA0070478B420CBFF9
:1017700000206FF0FA00704738B504462AB10B68B4
:101780009B68DB0515D5002038BD0C4B1B685D68D8
:101790001C2D01D1FFF714FB002255F81C3C996960
:1017A0002C338A4203D053F8040FA04204D1914253
:1017B000E9D16FF0FC00E7E70132F2E724290020CD
:1017C000F8B504461E460F46154600212C220C3063
:1017D00000F049FF054BA7601B685B68C4E903651F
:1017E0001C3B6360069B6361F8BD00BF2429002099
:1017F000064B1B685B681C2B04D053F81C3C0BB1D8
:10180000586870474FF0FF30704700BF2429002010
:1018100010B5FFF731FF0446FFF746FF50B9FFF759
:10182000E7FFA3685B681B685B68834218BF0024FE
:10183000204610BD0024FBE7064B10B51B685C6812
:101840001C2C01D1FFF7BCFA54F81C3C9868C0F37B
:10185000802010BD2429002038B5054648B100F08D
:101860000DFCB5EBD07F044601D0FFF7A9FA204666
:1018700038BDFFF7BDFFF4E72DE9F04108238022D2
:1018800040F22C41154800F03BFB0023144E154F4D
:1018900073607B6000F0F6FBDFF84C80304600F0B0
:1018A00083F80446A8B139468023424600F0E4F8A4
:1018B0000546204600F042F9206804F10801FFF7D0
:1018C000A1FB08B1FFF77CFA2946204600F004FA94
:1018D000E4E7BDE8F04100F06FBA00BF54240020F7
:1018E000102900200029002080280020002330B586
:1018F00000F12802C0F1040452F8041B21B1816FE9
:1019000054F8125019444D600833202BF4D130BDE7
:10191000084B094A1B6810B55B68044619615A6197
:10192000D1E90223D1E90001A047044600F007F9FC
:10193000204610BD24290020EDEEEEEE10B5094C36
:1019400023685B685A69084B9A4208BF086000F038
:1019500031FB2368834203D0BDE81040FFF73CBE53
:1019600010BD00BF24290020EDEEEEEE70B5054657
:101970000C46EFF30583C3F308030BB1FFF720FA1E
:10198000084B1A689368A34202D2D168A14206D2DA
:10199000126821462846BDE87040FFF775BA00235B
:1019A0001A46F6E70C290020F8B5054608B9FFF7F6
:1019B00007FA2C4E346814F1290F50D82A4B1968B5
:1019C00004F128038B424AD2D4E9063206200C33B4
:1019D00000FB0233226A02EB42021344626A02EB0A
:1019E000820213449B00E31801D2994201D2FFF70F
:1019F000E7F923681D4A1B0C1B04934201D0FFF733
:101A0000DFF92388B3F5817F01D3FFF7D9F9636844
:101A1000002B01DAFFF7D4F9154A176807F14C03D8
:101A20001360144A1268934201D9FFF7C9F9D4E947
:101A3000063206210C3301FB0233226A3C6002EBC2
:101A400042021344626A02EB82021344326802EBE0
:101A500083026B683260BB646F603846F8BD002754
:101A6000FBE700BF301E00208424000000005F5F01
:101A70002C1E0020802400002DE9F04F85B0884600
:101A800091460746029300B109B9FFF799F9D7F8D3
:101A900000A0DAF818100AF1300303EB8103019378
:101AA000DAF81C40234B1D6854B10C2101FB04548F
:101AB0001C60214B1B689C4201D9FFF781F92C4621
:101AC00000262546B346DAF81C305B4500D91CB920
:101AD000304605B0BDE8F08F1822019B02FB0B31A8
:101AE0000023AB604B69C5E900171E438B689A055C
:101AF00016D5B9F1000F02D0029A802A03D00393C1
:101B0000FFF75EF9039B13F0E00FD9B202D159F849
:101B100021301BB10391FFF753F9039949F8215084
:101B2000D8F804300BF1010BAB60C8F804500C3549
:101B3000C9E700BF281E00207C24000070478230C7
:101B4000012808B506D8FFF777FE18B9BDE80840A8
:101B5000FFF736B908BD0020704700000C4B70B588
:101B60001B6804465D680E4655F8103C1C3D1BB1D1
:101B7000034201D1FFF724F9002E05DA2146284659
:101B8000BDE8704000F03AB96869204070BD00BF00
:101B90002429002070B50E46044610B1431E0342AE
:101BA00001D0FFF70DF9134B2C221B6831465D68FD
:101BB000062355F8140C1C3DFFF755FA08B1FFF742
:101BC000FFF86B690BB9FFF7FBF86B69234201D192
:101BD000FFF7F6F821462846FFF782FD38B100F1FD
:101BE0000C012C22304600F0B7FF002070BD6FF0D2
:101BF0008B00FBE724290020F8B506460D46FFF7C9
:101C000007FE044608B9FFF7DBF8A7680FB9FFF72E
:101C1000D7F8E368991C20D05A1C21D1A5B315F13F
:101C2000820F13D102232360EFF3108672B6294688
:101C3000204600F01CF9054686F310882368022B25
:101C400024D12046FFF73EFD2846F8BD15F1830F4D
:101C5000EAD0FFF7B5F80025E6E702232360FAE7AC
:101C6000002BF6DB2046FFF741FE3B689B689B0597
:101C700001D50223236015F1810FD5D16369002BB3
:101C8000D2DBFFF79DF8CFE73546F4E7002323606A
:101C9000DAE7FFF741B830B5436844781C3BEFF30F
:101CA000108572B618695A6902400FD0022A08BF1F
:101CB0005A694FF0050002BF22F002025A611A6C05
:101CC0000A6000221A6185F3108830BD00280CBF1D
:101CD00020460220F7E70000C36802680B432DE9A5
:101CE000F041C36004460020936A1169606419449E
:101CF00007332062E06221F00701906823F00703B8
:101D0000C4E90931284B10F40076236314BF0C2377
:101D1000D369264D04BF9B000C33073323F0070320
:101D2000CB1A9769D168E3615D60002519609D60F9
:101D300066B902F1300505EB87054FF0180ED7693B
:101D4000324603F10C0C97421CD19F60A361002323
:101D500084F8340000F4406004F11C02B0F5406FD8
:101D600084F83530E386A26314D0114D9E4218BF2B
:101D70000D46294604F134006FF00102BDE8F04140
:101D800000F04CB90EFB0258D8F8108001324CF824
:101D9000048BD8E7074B064D1A60002E18BF0D467E
:101DA00000F0A2F90346E4E7EDEEEEEE5058000035
:101DB000A52B00000C29002038B50C480C4D00F074
:101DC000F3F80C4B0C4A28461A6000F049F92B68CE
:101DD00004465B6853F8141C53F81C0CFFF735F9E4
:101DE00008B1FEF7EDFF204638BD00BF971C00008C
:101DF0002429002008290020000C002038B50D46B9
:101E0000044608B9FEF7DCFFEFF3108372B6606991
:101E1000284008BF256183F3108838BD38B50D46CA
:101E2000044608B9FEF7CCFFEFF3108272B663697F
:101E30002B43636182F31088002038BD10B50C4637
:101E400091B188B103687BB1406868B15969436C4E
:101E5000E3674464FFF7E2FF02216068FFF7CEFF0B
:101E600001230020236010BD6FF08000FBE708B560
:101E7000406801640221FFF7D1FF002008BD000087
:101E80002DE9F84300F096F81A4F04463B68A0F19C
:101E900034065D68184B29461B68012B21D000B31E
:101EA000A5F11C08B0451CD0EFF30982AB682833BC
:101EB000934201D9FEF784FFEFF3108972B6B1683F
:101EC000D8F80800FFF705FA38B1B16854F8340CB7
:101ED000FFF7BBF808B1FEF773FF61683C6089F358
:101EE0001088064B1B6813B1B26902B11A6028460C
:101EF000BDE8F8832429002044240020082900207C
:101F00002DE9F8430D4617461E46044618B313B391
:101F100002F1040903FB09F808F10C038B421AD102
:101F20000A46002100F09FFB002004F10C031A4632
:101F3000014601318E42106002EB090C104608D1B7
:101F40000020A8EB09084344C4E90037A560BDE8B8
:101F5000F8836246EDE76FF0F800F8E7034638B122
:101F6000006828B102681A60002340F8043B7047FB
:101F7000704702680B1F41F8042C0360704700F1A2
:101F80000C0399420DD3C91A83688B4209D943685F
:101F90000433B1FBF3F203FB1210031F5842584104
:101FA0007047002070470000014B1860704700BF69
:101FB000182900200D4B37B51C6800230C4D0193E8
:101FC0006CB120462B6801A99847C0B20528607003
:101FD00008D101996068FFF7F5FA01236370204684
:101FE00003B030BD0128FAD0A468E9E71C2900201D
:101FF00018290020C9B20129064B417005D11A6881
:102000002AB101781278914201D3034A106818600E
:10201000704700BF1C29002020290020F8B50F4E72
:102020000446306815461A4618B1237807789F424F
:102030000BD3A060346060682B46FFF7D9FA2046C6
:10204000BDE8F8400121FFF7D5BF0646806810B112
:1020500007789F42F9D3A060B460ECE72029002004
:1020600038B50546FFF7A6FF0446FFF7B5FA05B1F8
:102070002C606068BDE83840FFF7E4BA4FF0FF30ED
:102080007047000008B500F023F8034B986000F09B
:1020900025F880F3888808BD00ED02E008B5FFF759
:1020A0003FF910B143F6DA3008BDFFF743F90028D5
:1020B000F8D1FFF74BF90028F4D162B6FFF748F9E1
:1020C0000028EFD1FFF75CF90028EDD0EAE7000027
:1020D000014B1868704700BF68240000014B1B6863
:1020E0001868704768240000014B1B6858687047E7
:1020F000682400002DE9F04F0E4699B00493044681
:102100009146FFF799FB794B07461B68C6F30725F5
:102110005B68A3F11C08F3B203933314059304D551
:102120006FF0800019B0BDE8F08F039BEB18042B13
:10213000F6D8002CF4D0FFF78FFB63000690EFD5A4
:102140006B4B04F01F0253F82260002EE8D0336876
:102150003A4631465868FFF70FFB002840F0BF8031
:102160003046C4F30721FFF7F5FA0028D8D1EFF382
:10217000108772B6FFF788FA044687F310880028A4
:1021800000F0B080FFF768FA4FEAC50A0790022313
:1021900052464946D8F80800FEF765FF0028BFD12F
:1021A000039B0499DB000293029A0623D8F80800E7
:1021B000FEF759FF07460028B2D1202200210DEB7F
:1021C000020000F050FA2022002110A800F04BFA83
:1021D0005246494608A800F0BFFC0DF1200A029AB9
:1021E000049910A800F0B8FCD3464FF00009A945A7
:1021F0002ED1002208AB013295424CD80DF1400996
:10220000CB46039B9F4249D1069B2046079A0093E9
:102210003146059BFFF7D4FA224604EB850504F10D
:1022200014031435C4F10800AB420AF1080A43D183
:102230000025029B04F1240123449A4209F1080974
:1022400043D1049B21463046A367FFF7F7FD69E7BA
:10225000DBF8042002235BF8081BD8F80800FEF71F
:1022600002FF00287FF45CAF09F10109BFE7D1F854
:102270000890C868D3F800C04844844504D2586820
:102280008444E145FFF44CAF0EF1010E0831AE4538
:10229000EDD10833AFE719469646F8E7DBF804209E
:1022A00006235BF8081BD8F80800FEF7DCFE0028C0
:1022B0007FF436AF0137A4E75AF8041C43F8041F33
:1022C0005AF8081C40F81310AEE759F8040C41F80E
:1022D000040F59F8080CC2E916050832ADE76FF093
:1022E00081001FE76FF082001CE700BF2429002057
:1022F0008028002040F20110704770B50546FFF7B6
:102300009BFA06462846FFF70FFA044608B9002054
:1023100070BD014632462846FFF72EFA0028F6D156
:102320002368D868F4E700002DE9F04799461C4B74
:102330000E461B689046D3F804A0FFF769FA0446DE
:1023400008B9FEF73DFDE368002B01DAFEF738FD22
:10235000032E01D9FEF734FD04EB8607BD69DDB11C
:1023600006234A4641465AF8140CFEF77CFE08B193
:10237000FEF726FDBB694D46994528BF1D4604EB77
:10238000C6042A464046A16B00F0E6FBA36B2B4433
:10239000A363BB695B1BBB612846BDE8F08700BF38
:1023A0002429002070B50E461546FFF731FA044681
:1023B00008B9FEF705FDE368002B01DAFEF700FD22
:1023C000032E01D9FEF7FCFC04EB8601886958B1A5
:1023D00085422A4628BF024604EBC604A36B801A36
:1023E0001344A3638861104670BD00002DE9F843D3
:1023F0001D461B4B0F461B6890465B68A3F11C09EA
:10240000FFF706FA044608B9FEF7DAFCE368002B8A
:1024100001DAFEF7D5FC032F01D9FEF7D1FC04EB5E
:10242000C70604EB8704A36AF26D9B1AAB4201D284
:10243000FEF7C6FC02232A464146D9F80800FEF7FB
:1024400012FE08B1FEF7BCFCD6E916032A46184472
:10245000414600F081FBF36D2B44F365BDE8F88342
:1024600024290020000001000080000000800000FE
:10247000FFFF0F00007C0000008000001C200020F7
:08248000042000204C020000C2
:1024A000009A1F4B9A4208D110B500F0FBF800F0DB
:1024B000BDF806BC96460C4674470FDFFEE7009A4F
:1024C000174B9A4208D110B500F0F4F800F0AEF8BE
:1024D00006BC96460C4674470FDFFEE70CB4029A22
:1024E0000F4B9A4209D10CBC10B500F0EBF800F08C
:1024F0009DF806BC96460C4674470FDFFEE7009A2F
:10250000074B9A4202D10749086874470FDFFEE77C
:10251000009A034B9A4200D174470FDFFEE7000098
:10252000A5EDF5FE201E00200348044B834202D097
:10253000034B03B118477047181F0020181F0020D5
:10254000000000000548064B1B1AD90F01EBA30140
:10255000491002D0034B03B118477047181F0020E1
:10256000181F00200000000010B5064C237843B966
:10257000FFF7DAFF044B13B10448AFF300800123E7
:10258000237010BD1C20002000000000085A00002D
:1025900008B5044B1BB104490448AFF30080BDE803
:1025A0000840CFE70000000020200020085A00006B
:1025B000A3F5803A704700BF174B002B08BF134BA1
:1025C0009D46FFF7F5FF00218B460F461348144A3E
:1025D000121A00F048F80E4B002B00D098470D4B14
:1025E000002B00D098470020002104000D000D486A
:1025F000002802D00C48AFF3008003F0CDF8200093
:102600002900FEF7DFFB03F0B3F800BF000008006D
:102610000000000000000000F80B0020201F002038
:10262000903900200000000000000000002383F328
:1026300000887047FEF7C4BBFFF7FCFFFEE7FEF71C
:10264000BFBBFFF7FCFFFEE7FEF7BABBFFF7FCFFDF
:10265000FEE7FEF7B5BBFFF7FCFFFEE7FEF7B0BBFA
:10266000FFF7FCFFFEE70346F0B5C9B252B9940884
:1026700003EB84041344A34211D1F0BD03F8011B02
:10268000013AF3E79C07F9D14FF0013514464D4369
:10269000D618032CEBD9371B3D60043CF9E704F84E
:1026A000011BE8E7024B1B685B689B68184700BF8B
:1026B000000C0020024B1B685B685B68184700BF7A
:1026C000000C002010B4034C246864682468A446FD
:1026D00010BC6047000C0020024B1B685B68DB6885
:1026E000184700BF000C0020024B1B685B681B6989
:1026F000184700BF000C002010B4034C2468646825
:102700006469A44610BC6047000C002010B4034C60
:1027100024686468E469A44610BC6047000C00208B
:10272000024B1B685B681B6A184700BF000C002047
:10273000024B1B685B685B6A184700BF000C0020F7
:102740000020704701680E4A0346914215D1C169C5
:10275000A2F11022A2F1EF1291420ED18268012A59
:102760000BD8C26812B101698A4206D0586928B1F3
:102770009B691B1A5842584170470120704700BF9F
:1027800055AA00FF0D4B70B59E68A6B13046FFF705
:10279000D9FF044678B9F3686BB935690DB920469D
:1027A00070BD2846FFF7CEFF28B9EB68B34202D1CF
:1027B0002E462D69F2E70124F1E700BF2829002009
:1027C0002DE9F041394E3468F368D4B1B468C4B12E
:1027D000002861D000295FD001FB00F5B5FBF0F0C7
:1027E000884259D1291D57D8AA070DD025F00302D8
:1027F00004321C4603E0616891424FD2A469002C68
:10280000F9D12046BDE8F0812A46F2E7891A23294A
:1028100004F12007D4E9050C1AD80123A360A0B164
:10282000C0F818C0A36903B158610023C4E9053397
:102830003369DB0702D5FFF7A5FFA0BB2A460021BD
:1028400038463C46FFF70FFFDBE7C6F80CC0E9E768
:1028500002F1200804EB08032039C3E9011E2169B5
:10286000DFF84CE0DC60196144F808E0AEF1102EAE
:10287000AEF1EF1EC3F81CE001B1CB60C3E9050C5B
:1028800040B18361996901B14B6101212361C4E9C0
:102890000121CAE7F360F5E70024B2E7D4F808E0C5
:1028A000BEF1000FB2D0012002F062FF2829002003
:1028B00055AA00FFF8B5054600283AD0364E3368D1
:1028C000002B36D0B268002A33D0834203D8726816
:1028D0001344984202D3012002F04AFFA0F12004E1
:1028E0002046FFF72FFF0028F5D155F8183C012BA3
:1028F000F1D145F8180C55E90570DFB1BB68CBB9CB
:1029000055F81C2C7B68203213447B60386100B181
:10291000C760202200212046FFF7A5FE386908B1D4
:1029200083682BB333699B0703D5FFF72BFF002880
:10293000D1D1F8BD40B3836833BB426863681344A8
:10294000203363600369D4E90521236192B9B9B9E1
:10295000426981696261A161A2B19461A26902B117
:10296000546103B1DC6020220021FFF77CFED9E72F
:102970003C46E2E79161A1690029E9D04A61E7E7B5
:10298000F160F8E7F460E9E7F36845F8083C03B163
:102990005C61F460C6E700BF2829002038B50D4609
:1029A0001422002104461248FFF75DFE1149124827
:1029B00000F030F8232D1AD914F003031FBF043D93
:1029C000ED18C3F10403E4182A4600212046FFF75E
:1029D0004AFE074B094AC3E900459C602260A2F108
:1029E0001022203DA2F1EF126560E261DC6038BD8B
:1029F00028290020B5280000C127000055AA00FFA3
:102A00000020704770470000014B1B68184700BF4B
:102A1000341E0020024B1860024B002019607047E2
:102A2000381E0020341E002010B50446406A10B144
:102A3000A16A00F079F9606AFFF7E6FF0020C4E9B7
:102A4000090010BD38B50446FFF7EEFF236A2C22BB
:102A5000012B0CBF05466FF0960500212046FFF7BD
:102A600002FE284638BD0000054B0A461978C90702
:102A700003D50146181D00F05CB86FF08800704760
:102A80003C29002010B5074C00F038F8204600F033
:102A900061F8201F082100F047F9BDE8104000F060
:102AA00045B800BF4029002038B50D4D2B78DB0715
:102AB00010D4281D00F03BF8044670B900F012F85D
:102AC000044650B900F030F8044630B92B7843F092
:102AD00001032B700024204638BDFFF7D3FFFAE72F
:102AE0003C290020044A002092F8803543F001037D
:102AF00082F88035704700BF44290020F8B5094CA2
:102B000020252646012720462762FFF79BFF013D2F
:102B100004F12C04F7D196F8803565F3000386F8AC
:102B20008035F8BD44290020FDF790BD7047002096
:102B3000704713B5002001AB144600F0C9F830B956
:102B4000019BA34218BF6FF0930002B010BD6FF05D
:102B50009200FAE70020704770B504463AB141EAA6
:102B6000040313F003030CD1D518032D0FD822F062
:102B700003031C441944002302F0030293420CD1C6
:102B800070BD11F8013B013A04F8013BE6E7CD1AAC
:102B90002E68E51A2E60043BE6E75D5CE5540133E0
:102BA000ECE700002DE9F04F01251F4B8DB0D3F865
:102BB0000090D9F80820D9F800309540013D1BB1AC
:102BC000984708B1FFF7B4FD4FF0010A4FF00041FC
:102BD0002846FFF781FD0026044609F10C07002C6A
:102BE000F4D0D9F80830B34202D8FFF7A1FDEDE7E1
:102BF0000AFA06F814EA080F12D03B680BB9FFF77F
:102C000097FD01A94046FFF76FFD3B6801A8DDF87D
:102C100008B0984701465846FFF782FD24EA0804A9
:102C200001360437DBE700BF000C002010B50C4C68
:102C3000236813B10B4B1B682BB900F059FD30B959
:102C40000122084B1A6001232360002010BD0138C7
:102C5000062801D9044810BD044B53F8200010BDCC
:102C6000CC2E0020C82E0020FE8FFFFF7C580000D5
:102C7000144B2DE9F043002814BF04461C46124FA4
:102C8000236883B0BB4219D016460D4620464FF448
:102C9000E07104F1040900F047F804F58E78484625
:102CA00000F010FC404600F035FA2B464A464046FC
:102CB0000649009600F044FA08B92760002003B0E6
:102CC000BDE8F083D02E0020A5BCC95A49350000CC
:102CD00070B50D4C1D46002814BF064626460B4B0A
:102CE000306882B098420DD106F58E7000263346CA
:102CF0000096144600F072FA002818BF34462C6083
:102D000002B070BD0248FBE7D02E0020A5BCC95A16
:102D1000E88FFFFF38B131B1002201440346013092
:102D200081421A70FAD1704738B131B100220144A2
:102D30000346013088421A70FAD170472DE9F04FEE
:102D4000B2F5C07FB5B000F2D680DFF8B09114467E
:102D50000D464FF4D07200210DF15C08074648463D
:102D6000FFF781FC404601F0EFF90023A9F810308D
:102D70002023294609F11805224689F817302846EC
:102D800063BAA9F81230FFF7E7FE80225C4B404699
:102D9000079303F10433089303F1043309932A558D
:102DA00003F1043307A90A9301F0E4F982460028ED
:102DB0007ED10FAD04F119032C460BAE029303979D
:102DC00001960495102200210198FFF74CFCDFF8D2
:102DD00034B1DDF808A005940E9B5BF8044C5BF859
:102DE0000C7C0B995BF8100C5BF8085C5C40019B59
:102DF000DDE90C627E40554081EA00071A46012158
:102E00004046CDE90B76CDE90D5401F0CDF9BAF18C
:102E1000100F94BFAAEB0A0AAAF1100A0BF1100BCB
:102E2000002863D1BAF1000FD6D1059C10222046AC
:102E30000199FFF791FE99F8033010340133A04552
:102E400089F80330BED1049D802229464046039F65
:102E5000019E01F08FF9824660BB3C4607F12009D4
:102E600013AB1A460121404601F09EF9824608BB89
:102E70001022204613A91444FFF76EFE4C45EFD1F3
:102E8000404601F071F94FF4D0711C48FFF74CFF38
:102E900028462021FFF748FF07A81021FFF744FF2D
:102EA00030461021FFF740FF504635B0BDE8F08FA7
:102EB0000FAD0BAE404601F057F94FF4D0710F48FB
:102EC000FFF732FF28462021FFF72EFF102107A829
:102ED000FFF72AFF10213046FFF726FF2021384652
:102EE000FFF722FF504635B0BDE8F08F8246039FC2
:102EF000019E049DDEE76FF0370AF3E79030002073
:102F000000010203A03000202DE9F04188B0044602
:102F10000D462022002168466F46FFF7A4FB04F10E
:102F20002006E27B0132D2B2E273002A4DD1A27BAD
:102F30000132D2B2A273002A47D1637B0133DBB2E4
:102F40006373002B41D1237B0133DBB22373002B4E
:102F50003BD1E37A0133DBB2E372002B35D1A37AA4
:102F60000133DBB2A372002B2FD1637A0133DBB2C2
:102F7000637253BB237A0133DBB223722BBBE37939
:102F80000133DBB2E37103BBA3790133DBB2A3717D
:102F9000DBB963790133DBB26371B3B923790133F0
:102FA000DBB223718BB9E3780133DBB2E37063B931
:102FB000A3780133DBB2A3703BB963780133DBB292
:102FC000637013B92378013323703B4622460121F5
:102FD000304601F0E9F8804650BB103708AB9F42FD
:102FE0009FD1029AAB68039F534002933046EE682C
:102FF00007997E400396049F2E69009B7E400496AD
:103000006E69059F80227E400596069FAE697E40D0
:103010000696EE697140079129684B40009301992B
:103020006B684B406946019301F0A4F8804638B1C3
:1030300068462021FFF778FE404608B0BDE8F081E1
:10304000102220460DEB0201FFF786FDF0E700BFDE
:103050002DE9F8431D468369B3F5C07F52D8164663
:10306000C3F5C072AA424DD3C5F5C072D31AB3429C
:1030700048D30446DFF898904FF4C0720F46484694
:103080000021FFF7F0FA4946D4F89430A269D4F849
:1030900098009847002838D1D4F818803DB1D4E979
:1030A00025302A4609EB0801984770BBA84407B1B0
:1030B000C6B9174942460846FFF740FE054638B1F3
:1030C0004FF4C0711248FFF72FFE2846BDE8F88381
:1030D00020460F49FFF718FF05460028F0D10123CD
:1030E0002361EDE73946324609EB0800FFF734FD6E
:1030F0000749B04442460846FFF720FE054600282F
:10310000DED1E5E76FF03705DFE76FF03305DCE789
:103110003032002010B5A42200210446FFF7A3FAA4
:103120004FF0FF314FF6F072044B2161E26104F180
:103130009C001B68BDE81040184700BF5C1E0020C3
:103140002DE9F043054685B00F46164600211022B2
:1031500068469946FFF787FA1E4B05F19C084046E2
:103160001B68984720B10446204605B0BDE8F083AF
:1031700005F12004204600F0E7FFAA69C5E925769D
:10318000EAB920232E69AB61002E20DB2046694678
:10319000802200F0EFFF044630B933464946284606
:1031A0000C9AFFF755FF04460B4B40461B689847A7
:1031B000002818BF0446204605B0BDE8F0832E69FC
:1031C000002EE3DA172A02D801325608DEE700267D
:1031D000DCE700BF581E0020541E00202DE9F04FF0
:1031E000B2F5806F8DB0169F00F2E380B7F5807F57
:1031F00000F2DC80044615460E462022002104A879
:103200009846FFF730FA6C4B04F19C0948461B685E
:1032100098478346002840F092802269E3699A42E9
:1032200000F391806369002B40F08D80002F40F007
:10323000A980DFF888A16F46002D00F098806F46C6
:1032400004F120080EE0102DAB4628BF4FF0100B04
:10325000304639465A46FFF77FFCB5EB0B055E4416
:1032600000F08580E37B0133DBB2E373002B4DD1AB
:10327000A37B0133DBB2A373002B47D1637B013304
:10328000DBB26373002B41D1237B0133DBB22373A9
:10329000002B3BD1E37A0133DBB2E372002B35D153
:1032A000A37A0133DBB2A372002B2FD1637A0133EF
:1032B000DBB2637253BB237A0133DBB223722BBBC5
:1032C000E3790133DBB2E37103BBA3790133DBB2F2
:1032D000A371DBB963790133DBB26371B3B92379CD
:1032E0000133DBB223718BB9E3780133DBB2E370D6
:1032F00063B9A3780133DBB2A3703BB963780133C0
:10330000DBB2637013B92378013323703B46224646
:103310000121404600F048FF8346002893D0DAF8A8
:103320000030484698470346202104A8002B18BFC8
:103330009B46FFF7F9FC10213846FFF7F5FC58468D
:103340000DB0BDE8F08F3A46414600232046FFF716
:103350007FFEDFF868A000283FF46DAF4846DAF83A
:1033600000309847834600283FF465AFE7E72046E2
:1033700004A9FFF7C9FD83460028D0D12369013392
:103380002361CCE73A46414604A8FFF7D7FC8346C1
:1033900018B16F46DFF824A0C1E7204604A9FFF763
:1033A000B3FD834600283FF444AFF2E76FF0370BDC
:1033B000C5E76FF0350BC2E7581E0020541E0020F1
:1033C0002DE9F043202B1D460646884691468BB0DA
:1033D00026D8DBB202AF8DF80480B04658F8041B43
:1033E0008DF8053021B9404600F020FF044640B971
:1033F000012302224046336001A900F02BFF04465E
:1034000038B138462021FFF78FFC20460BB0BDE8CD
:10341000F0832A464946404600F01CFF0446F0E788
:1034200002AF1946104600233A4601F099F80446C7
:103430000028E6D12023B9461D46CCE72DE9F0410E
:10344000D0F8F830A6B0002BD8BF02AE31DD05466B
:103450000027D0F80C4102AEA4F101089022D5F863
:10346000FC403146D0F8000101AB0197B8FA88F86A
:10347000A0474FEA5818044620B9019B53B9B8F148
:10348000000F16D030469021FFF74EFC204626B0A4
:10349000BDE8F081014632462846FFF791FF58B952
:1034A000D5F80431019A1344C5F80431B8F1000F7E
:1034B000E8D16FF03C04E5E70446204626B0BDE8BD
:1034C000F08100BF70B500250446142204F588760B
:1034D0002946C0F8F850FC30FFF7C5F80822294605
:1034E0003046FFF7C0F8144B30461B68984720461B
:1034F00040F8045B00F080FE104B30461B68984794
:10350000C8B9D4F8F830AB420FDC03EB830204EB0C
:1035100082022021C2F800010120C2E942100849BC
:103520000133C2F8FC10C4F8F830064B3046BDE851
:1035300070401B68184770BD5C1E0020581E00209C
:103540004D400000541E00202DE9F047202A88B08D
:103550007AD83F4B00F5887904461B6848461746E1
:10356000884698470546F8B940F20116D4F8F83075
:10357000002B65D02046FFF761FF054638B9D4F827
:10358000F830002B14DC013EF2D16FF03B056E46A3
:1035900020213046FFF7C8FB2E4B48461B68984752
:1035A000002818BF6FF01D05284608B0BDE8F08759
:1035B000D4E94132934203D3D4F80C21012A02D03A
:1035C000013ED7D1E1E71F2BFAD96E4601462022F2
:1035D000304604F1040AFFF746F83146504600F041
:1035E00063FE05460028D3D1504600F019FE504630
:1035F00000F002FE2946504600F018FE054600285D
:10360000C6D150462022314600F024FE054600284F
:10361000BED1034632462021304600F0A1FF0546C8
:103620000028B5D1D4F8F8303A46002BC8BF0023A3
:1036300040463146C8BFC4F80431FFF78DFAA7E70A
:103640006FF03F056E46A3E76FF03B05ACE700BFA8
:10365000581E0020541E0020002130B58DB02822B5
:1036600002A80191FEF7FFFF02A800F0A1FF0446A7
:1036700010B120460DB030BD174D4FF0FF31286816
:1036800000F044F9044620B1144800F0D5F9012CAB
:1036900018D0002000F06AF9D0B9114A02A901A897
:1036A00000F0C6FC0446012000F060F960B928680B
:1036B00000F034F90028DCD00A4800F0BDF92046BB
:1036C0000DB030BD0524F2E7074800F0B5F9EEE78C
:1036D000064800F0B1F9E0E7401E002098580000CD
:1036E000B0330020F0580000D0580000B05800005F
:1036F00030B583B000F05CF828B100F0ABF80324DB
:10370000204603B030BD00F077F8D8B900F02EF9AC
:10371000E0B9224CD4F828391B0EF02B0AD1D4F88A
:10372000242A1F4B9A4231D000F044F8072400F0BD
:1037300091F8E5E7062400F03DF800F08BF820460C
:1037400003B030BD0424204603B030BD00F032F891
:1037500000F080F8FFF780FF044698B9114D2B6800
:10376000002BCDD102460146FFF782FA50B96822FC
:103770000D4901ABFFF7ACFA20B920460B4B2B608B
:1037800003B030BD0524204603B030BD012000F059
:10379000EDF80028DAD1C4F80C0ADBE700108450F9
:1037A0000000E020D0350020D43500205AEA5A5AD3
:1037B0000020704700207047430504D54FF0FF32CA
:1037C000034BC3F80821024BC3F8080A704700BF37
:1037D00000108450014BC3F8040A70470010845055
:1037E00008B100F06BB84FF47500704708B100F0F5
:1037F0004FB84FF47500704710B5114800F072F8DB
:1038000000B110BD0F4800F06DF80028F9D10E4C42
:10381000204600F067F80028F3D10C4B0C481C60E0
:1038200000F060F801460028EBD100F02DF80446C6
:1038300008B1204610BD00F07BF82046FAE700BF33
:10384000501E00204C1E0020481E0020401E00205C
:10385000441E002008B5084800F04EF8074800F064
:103860004BF8074800F048F8064800F045F8BDE876
:10387000084000F00BB800BF501E00204C1E002076
:10388000481E0020441E002000207047704700BFE3
:10389000024610B4084CD4F8003A1342FBD021B1D0
:1038A000D4F804310B60C4F80831034B0020C3F88E
:1038B000082A10BC704700BF00108450044AD2F898
:1038C000003A1842FBD0C2F8080A0020704700BF37
:1038D0000010845001F084BFFEF7C5BE0A460021E7
:1038E000FEF7C1BE08B5034B02681B681068984715
:1038F000002008BD7C1E002008B5034B02685B68F1
:1039000010689847002008BD7C1E0020024B02680A
:103910009B681068184700BF7C1E002008B5034B49
:103920000268DB6810689847002008BD7C1E0020F4
:1039300070B5094C094D2069AB68984718B1084B20
:1039400008485B6898470021074AEB6811602069C6
:10395000BDE87040184700BF681E00207C1E002094
:10396000601E0020085900003C360020F8B51A4DB2
:103970001A4E0446B26828699047E8B9184F3B6868
:103980004CB1A3B1012B19D0013B3B602869F3680E
:1039900098470020F8BD43B90121124AC2F800152A
:1039A0001149D1F81029002AFBD101333B60F3689B
:1039B000286998470020F8BD0C48F8BD0A4AD2F89B
:1039C0001039002BFBD1074A6FF07E40C2F800355A
:1039D000FFF700FF3B68D7E7681E00207C1E002031
:1039E0003C3600200000845000108450E98FFFFF17
:1039F000014B1B68184700BF7C1E0020014B9B68D1
:103A0000184700BF7C1E0020014BDB68184700BF31
:103A10007C1E0020BFF34F8F0549064BCA6802F495
:103A2000E0621343CB60BFF34F8F00BFFDE700BFE1
:103A300000ED00E00400FA0530B44FF0FE3200253E
:103A4000074B084C08494968C3F80024C3F804240C
:103A5000C3F80824C3F80C24C4F8005530BC084748
:103A60000010845000008450601E002010B50446F1
:103A700050B1636813F0685F05D0064A934202D0E4
:103A800000236260236010BD034B04485B689847C5
:103A9000EFE700BF2C5F5CA9601E002028590000E2
:103AA000C8B143680D4A934213D013F0685F0ED03B
:103AB000012350E8002F194640E8001C9CF0000F3D
:103AC000F7D1012AF5D0BFF35F8F0020704704487B
:103AD0007047044870476FF4E04070472C5F5CA962
:103AE000E98FFFFFEA8FFFFF034680B14268094973
:103AF0008A420AD012F0685F05D0BFF35F8F0022C0
:103B000010461A60704704487047044870476FF4C5
:103B1000E04070472C5F5CA9E98FFFFFEA8FFFFF51
:103B200010B5044620B10023034A2360626010BD33
:103B30000248FFF781FFF6E73A00003A50590000CB
:103B40002DE9F047002878D00C46002975D01D4695
:103B5000002B72D007461AB1012200232A600360AD
:103B60002B68002B64D02946204600F00FFE8046CB
:103B700000285FD12146286800F0EEFD804600282D
:103B800058D12B68082B6CD0042B6DD0A3F10209FF
:103B9000B9FA89F94FEA59190121354EC6F8C4110D
:103BA000C6F84011C6F8C411636AC6F83031D6F8B9
:103BB00030219342F6D14FF0000A4FF0FF30C6F8A3
:103BC0002CA1FFF7F9FD6FF01B035046C6F800313A
:103BD000FFF700FEC6F80C91D6F8040A40F48060A6
:103BE000FFF7F8FD0A23C6F83831089B012B29D0CE
:103BF0002369204AA2FB03231B09626A404602FB99
:103C000003F303EB43031A4ADB039B09C2F8D831E1
:103C10000123C2F82C313B682A6823F07F4343EA32
:103C200002633B602A6843EA02233B60BDE8F087F9
:103C3000DFF844804046BDE8F087DFF8408040462A
:103C4000BDE8F0874FF47F03D3F80C2C013206D087
:103C5000D3F80C3C074AA2FB03231B09CDE716232C
:103C6000CBE74FF0030997E74FF0020994E700BF55
:103C700000108450ABAAAAAA310CF100350CF10057
:103C800058B34B1EB3F5047F27D230B54FF0000E6A
:103C9000CD00744671464B0901F01F0C50F82330DB
:103CA000BCF11F0F23FA0CF306D003F0010319B97E
:103CB00001211C468E46EEE79C4201F1010106D02F
:103CC0001C464FF0010EA942E5D1002030BD0EF197
:103CD000010E9645F7D1024830BD0148704700BF3C
:103CE000360CF100C0B32DE9F0434C1EB4F5047F4F
:103CF0001DD2E3B1DAB100252E46A8462C46CF00EE
:103D000003F1FF394FEA541C04F01F0E50F82C1039
:103D1000BEF11F0F21FA0EFC0CD00CF0010C4CB9B7
:103D20000126E04634463546ECE7964216D90C4863
:103D3000BDE8F083AB420BD0C44508BF0136A945AE
:103D4000F3D001350134BC42DCD10020BDE8F08362
:103D50000125E0462E46F5E7014870471D46F1E78C
:103D6000370CF1002DE9F04F91B08346DDE91B4699
:103D70000D46002E6ED10F691C6000231A990B604E
:103D8000002A00F02F819D4B6A6AD3F83811D3F8CE
:103D900030319A4269D10A2967D19BF803300893E0
:103DA00004F10803079304230593954B934CA3FB5D
:103DB00007239B0803EB4303A7EB430303930697F7
:103DC0001A9B069E1E60002E00F0EA8000F0EEFCBA
:103DD00000230993BBF1000F00F0D58098464FF007
:103DE000010ADDF81C90002D00F0CD80089B002B0F
:103DF0003DD0284608A900F0C9FC002839D0814BE5
:103E0000984220D0089B082B00F0E48000225B0041
:103E10000893294608AB58460092FFF791FE7A4B6B
:103E2000984200F0D38070B9DBF80020130A03F445
:103E30007F03134323F07F43CBF80030059B013B06
:103E40000593BDD10020039000F0B0FC039811B0A1
:103E5000BDE8F08F4FF47F01D1F80C0C01300CBF9E
:103E60004FF40477D1F80C7C86E76848EBE76648A6
:103E7000C5E72946089800F06FFC0028BFD1089BD1
:103E8000082B00F0A980042B00F0A980A3F1020305
:103E9000B3FA83F35B090493C4F8C4A1C4F840A146
:103EA000C4F8C4A16B6AC4F83031D4F8302193420D
:103EB000F6D100234FF0FF30C4F82C31FFF77CFC23
:103EC000002318466FF01B03C4F80031FFF782FC93
:103ED000049B4B4FC4F80C31D4F8040A40F48060C2
:103EE000FFF778FC0A23C4F838312B6909A8A7FB2F
:103EF00003236A6A1B0902FB03F303EB4303DB039F
:103F00009B09C4F8D831C4F82CA1DBF8003008991B
:103F100023F07F420B0243EA01631343CBF80030E6
:103F200000F00AFC099B03F01A0303437FF46AAF15
:103F3000A7FB0637D4F81431B8EB970F0A93D4F8DF
:103F400018310B93D4F81C310C93D4F820310D9315
:103F5000D4F824310E93D4F828310F9301D1039B68
:103F60009BB9484618220AA9183EFFF7B3FC09F18D
:103F7000180908F101089EB100F018FC002309930C
:103F8000002D7FF433AF224839E748461A46F61A27
:103F90000AA9994408F10108FFF79CFC002EEBD117
:103FA000069F079E6A6939463046FFF769FEAA698F
:103FB00040B94FF4806339463046FFF793FE00283E
:103FC0003FF440AF00231A9A136018E72B6A002BC6
:103FD0003FF439AF0F4836E7032304935CE702232D
:103FE000049359E7012229465846009608ABFFF78B
:103FF000A7FD00283FF4D4AE25E700BF0010845091
:10400000ABAAAAAA020CF100310CF100300CF100AD
:10401000350CF100320CF10010B4DDE901340194EB
:104020000024DDF80CC0CDE902C410BCFFF79ABE35
:1040300030B51546012487B005AB00930022CDE9C9
:10404000015404ABFFF78EFE07B030BDF0B587B06A
:10405000002966D01E46002B63D01446002A60D08B
:10406000314F0D4638684FF0FF31FFF74FFC002805
:104070004DD10020FFF77AFC002844D12B4800F0F6
:1040800097FAD8B101204FF0FF35FFF76FFC0028F9
:1040900035D14FF408712648FEF73CFE042125482F
:1040A000FEF738FE21482821FEF734FE3868FFF776
:1040B00035FC00282FD1284607B0F0BD1C4A034626
:1040C000029205AA019204AA03900092174902469F
:1040D0001848FFF7A1FF03460028D3D128461D4604
:1040E000059B22469C4228BF1A460499326008313B
:1040F000FFF7F0FB0120FFF739FC0028C9D00E487C
:10410000FFF79AFCC5E70D48FFF796FCB6E70C48A9
:10411000FFF792FCADE70B48FFF78EFC284607B08F
:10412000F0BD4FF0FF35C6E7401E0020543600209A
:104130007C36002050360020D0580000B0580000D7
:10414000985800007459000010B5044630B10022A0
:1041500001236265A265E365236610BD0148FFF790
:104160006BFCF4E78C59000018B174220021FFF7B2
:10417000B3BB704788B199B110B50024802A84631D
:1041800080F83C4006D1102204631044FFF7A2FBE4
:10419000204610BD6FF01F0010BD6FF0210070476A
:1041A0006FF01F00704700BF70B5044686B0F8B1CD
:1041B0001046EAB1E3B101291AD8A26B16D0012A40
:1041C00016D1102500210DEB0506019602AA6163A8
:1041D0002946009500F0F6FA50B92B4632462046A3
:1041E00002A900F099FD18B906B070BD002AE8D008
:1041F0006FF02100F8E700BF10B5044628B1204653
:10420000BDE81040F421FFF769BB0448FFF714FC38
:104210002046BDE81040F421FFF760BBA059000024
:1042200010B1F421FEF776BD704700BF08B521B18B
:10423000012908D06FF0360008BD012100F058F8C0
:104240000028F7D108BD022100F052F80028F9D06B
:10425000F0E700BF30B505468818B0F5801F0B4663
:104260001446A1B001D8802A0CD9B3F5801F17D904
:1042700022461946284600F07DF8044684B92046B7
:1042800021B030BD6846FFF725FB22466946284627
:1042900000F070F8802104466846FFF71FFBEDE749
:1042A0006FF03604EBE700BF70B5E8B10E46D9B148
:1042B000044600F031F80546B0B92368012B0BD055
:1042C000022B01D0284670BD1C22304604F10801A3
:1042D000FFF700FB284670BD2022304604F108019C
:1042E000FFF7F8FA284670BD6FF03605EAE700BF21
:1042F00078B138B50D46F0210446FFF7EFFA4023B8
:1043000020462560E36500F091FA003818BF0120CF
:1043100038BD0120704700BFF0B5056EA5B004465A
:1043200004AEE5B9002301270193304667602946B2
:1043300002AA009300F046FA10B1012025B0F0BDAA
:104340002A46204602A900F099FA0028F5D1204615
:1043500000F0AAFB0028F0D1206625B0F0BD802D2A
:104360002A46304628BF802204F16401FFF7B2FAE2
:10437000256ED7E7002800F0AE802DE9F04F1446F7
:10438000A5B0002A3DD00F46002949D0B2F5803FA4
:104390000546006E20D34FF6FF7805F1640AEB6DF9
:1043A0001A1AB2FBF3F103FB1122002A65D18342F2
:1043B000B9464FF6FF7672D0B6FBF3FB03FB0BFB5F
:1043C000BBF1000F30D1002E45D1A4F57F44FF3C56
:1043D000B4F5803F4744E2D2EA6D161AB6FBF2F319
:1043E00002FB1366A64228BF2646002E75D18242E4
:1043F00000F08D80B4FBF2F602FB06F62EB9002C1D
:1044000079D1002025B0BDE8F08F00233146384631
:10441000CDE9003302AA00F0D5F9002800F095801C
:10442000012025B0BDE8F08F002359464846CDE96C
:10443000003302AA00F0C6F90028F1D15A462846F6
:1044400002A900F01BFA0028EAD1A6EB0B06286EA1
:10445000D944002EB9D019304946324605EB8000C8
:10446000FFF738FAA4F57F44286EFF3C3044B4F5DA
:10447000803F4744286692D2AEE7424528BF424675
:10448000164639465044FFF725FA286EEB6D304446
:10449000834207EB06092866A8EB06068CD1802B21
:1044A00028BF802351461A4604A8FFF713FA0023B9
:1044B000E96D02AACDE9003304A800F083F90028D1
:1044C000AED12846EA6D02A900F0D8F90028A7D19C
:1044D000EB6D286670E70120704705F164033946EB
:1044E00032461844FFF7F6F9286EEA6D3044A41BF3
:1044F000374428667BE72B6E2246193305EB830091
:104500003946FFF7E7F92B6E23442B6679E7802ABB
:1045100028BF802205F1640104A8FFF7DBF900231E
:10452000E96D04A8CDE9003302AA00F04BF9002898
:104530007FF476AF2846EA6D02A900F09FF90028C3
:104540007FF46EAFEA6D286654E73246284602A92A
:1045500000F094F900287FF463AF3744A41B4EE7C2
:10456000F8B51C460546114816460F46FFF744FEAF
:1045700021460E48FFF75AFE044620B10B48FFF7CC
:104580004FFE2046F8BD3A4629460848FFF762FE2E
:1045900004460028F2D131460448FFF785FE044660
:1045A0000248FFF73DFE2046F8BD00BF9C380020C2
:1045B0001C2370B582B001A90546019300F032F8C2
:1045C000044638B9019B1C2B07D0144C1C212846EB
:1045D000FFF784F9204602B070BDD5E90112131E21
:1045E00018BF0123003918BF0121012628689B004C
:1045F000EA6843EA4103002818BF43F00103EE6173
:104600002AB9C5E90834002BE4D1054CDEE7204681
:1046100043F00803C5E9083402B070BD370CF00060
:104620000E0CF0000346002866D0002964D00A680A
:104630001C2A61D14FF47F023B49D2F8100C88420A
:104640005CD0D2F8101C013158D0D2F8101C4FF4B5
:104650007F021960D2F8140C3449884260D0D2F835
:10466000141C01315CD0D2F8141C4FF47F02596045
:10467000D2F8181C11F5947F4FD0D2F8181C0131D4
:104680004BD0D2F8181C4FF47F029960D2F81C0C62
:10469000274988423ED0D2F81C1C01313AD0D2F8CA
:1046A0001C1C4FF47F02D960D2F8001C70312FD04F
:1046B000D2F8001C01312BD0D2F8001C4FF47F023D
:1046C0001961D2F8041CAF3120D0D2F8041C01319A
:1046D0001CD0D2F8041C4FF47F025961D2F8080CA8
:1046E000144988420DD0D2F8081C013109D0D2F803
:1046F000082C00209A6170470120704740F6FC01A9
:10470000A5E740F2373200209A6170475121E2E775
:104710009021D3E742F60411C3E740F6D861B2E72F
:1047200042F2D001A1E700BFFCF8FFFFD020FFFF5D
:104730000429FFFF37F3FFFF014608B54FF48060FF
:10474000FFF754F80022034BC3F8C821C3F82C210B
:1047500008BD00BF001084500138072805D8DFE8E5
:1047600000F0100E040A0404040607487047CB68E2
:1047700000204B6270478B6800204B6270474B688B
:10478000F6E70B68F4E700BF310CF1000B6802E0BC
:10479000082B0B6006D8026A13424FEA4303F7D096
:1047A0000020704700487047310CF1000022044B94
:1047B0004FF48060C3F82C21C3F8C421FEF7FCBF7E
:1047C00000108450F0B5002483B0B0F1005F8DF884
:1047D000074025D38C468444BCF1804F04461FD843
:1047E00017461D4601220DF1070300F059FF06464A
:1047F000B0B99DF80730099A3C603B7192B14DB158
:104800000246089928460DF1070300F049FF38B920
:104810009DF807303046099A1560137103B0F0BD5A
:104820004FF47506304603B0F0BD00BFD8B108B5EF
:104830000368012B04D0022B0FD043B10B4808BDF5
:1048400020220B490830FFF745F8002008BD14224C
:1048500008490830FFF73EF8F7E7202206490830FC
:10486000FFF738F8F1E74FF4730070470100F300E9
:10487000B0590000F0590000D05900002DE9F8436C
:10488000002900F0F9800446002800F0F980036850
:104890000F469046002B00F0C380013B012B00F235
:1048A000D7804FF0FF3178484FF00209FFF72EF81C
:1048B000002840F0BF800020FFF758F80646002887
:1048C00040F0C280714AD2F81C39002BFBD16F4DE9
:1048D000D5F8203C002BFBD14FF0FF30FEF76CFFEA
:1048E000D5F8040A20F04000FEF774FF01230722E8
:1048F000C5F81838C5F80029C5F8C437A36CC5F841
:10490000CC37E36CC5F8D037C5F8C09723685BB1E6
:10491000013B012B18D8636AC5F85C36236AC5F8D9
:104920005836E369C5F85436A269584BC3F8502687
:104930006269C3F84C262269C3F84826E268C3F8C6
:104940004426A268C3F84026504AD2F81039002BFA
:10495000FBD1B8F1000F5FD063684020012B08BF86
:10496000C2F884363A68494BC3F8282CC3F82C8C1B
:10497000FEF736FF0646454AD2F81039002BFBD128
:10498000424AD2F8203C002BFBD123685BB1013BAB
:10499000012B18D8D2F85C366362D2F858362362FD
:1049A000D2F85436E361394BD3F85026A261D3F8DC
:1049B0004C266261D3F848262261D3F84426E2608F
:1049C000D3F84036A36000230121304AD2F8CC0747
:1049D000A064D2F8D007E064C2F8C417C2F88436E5
:1049E000C2F8C837D2F81039002BFBD1C2F81838FA
:1049F000002E3BD1254BD3F8040A40F04000FEF7CF
:104A0000E9FE0120FEF7B2FF60BB1F48FEF786FFFC
:104A100010BB3046BDE8F8830423C2F8C837AAE7C4
:104A20004FF0FF3118484FF00109FEF76FFF0028E3
:104A30003FF441AF1648FEF7FFFF0020FEF796FF58
:104A4000064600283FF43EAF1248FEF7F5FF39E76F
:104A5000114E3046BDE8F8831048FEF7EDFF3046B2
:104A6000BDE8F8830E48FEF7E7FFCEE7102104F11A
:104A70000800FEF733FFBDE70A4E3046BDE8F88375
:104A80004FF47306C5E700BF501E0020001084508D
:104A900098580000B05800000100F300F0580000E2
:104AA000D05800000300F300A0B3034670B4D0E96F
:104AB0000240D3E9041226BA05BA0CBA10BAC3E907
:104AC0000440D3E90612986A09BAC3E9026512BA2A
:104AD000996100BAD3E9084125BA0CBAC3E90725A0
:104AE000D3E90B12C3E9094009BAD86B12BAD962EB
:104AF000D3E90D4125BAC3E90C250CBA00BAD3E9B4
:104B0000101209BA12BAC3E90E40196400205A649F
:104B100070BC70474FF47300704700BF002867D027
:104B200038B590F83C300446022B17D0032B42D006
:104B3000002B31D03048314D2A68314B1268C3F810
:104B400000242A685268C3F804242A689268C3F8CB
:104B500008242A68D268C3F80C2438BD016B006CA5
:104B600000F0CEFB254D0028E6D12A68244B1268C0
:104B7000C3F800242A685268C3F804242A6892689B
:104B8000C3F808242A68D268C3F80C24216B206C6F
:104B900000F024FC68B1CFE70269194BC3F8002488
:104BA0004269C3F804248269C3F80824C269C3F8BF
:104BB0000C24002038BD016B006C00F0E1FB0F4DB0
:104BC0000028B9D12A680E4B1268C3F800242A685D
:104BD0005268C3F804242A689268C3F808242A6833
:104BE000D268C3F80C2400F0EFFB0028E1D0A3E763
:104BF0004FF47100704700BF0900F1003C1E002017
:104C00000010845038B50446364AD2F81039002BCB
:104C1000FBD1344AD2F87034002BFBD1314AD2F8A0
:104C2000203D002BFBD12F4AD2F8203C002BFBD19A
:104C30002C4AD2F8383D002BFBD12A4DD5F8383C10
:104C4000002BFBD14FF0FF30FEF7B6FD636BD5F8BC
:104C5000040A23F00403032BE36D39D0012B0CBFAE
:104C600020F0800020F02000FEF7B4FD01231D4A53
:104C7000C2F80039D2F81039002BFBD1194AD2F80A
:104C80007034002BFBD11749C2F8BC34D1F810396D
:104C9000002BFBD1134AD2F87034002BFBD1626B8E
:104CA000002022F00401032918BFA36B4FEA8202FF
:104CB00018BF03F001030B4902F01C021A43C1F8AC
:104CC000C024636B072B04BF0123C1F87C3438BDBB
:104CD000012B0CBF20F0400020F01000FEF77AFD01
:104CE000C4E700BF00108450094A0A4B11680968E4
:104CF000C3F8001411684968C3F80414116889687E
:104D0000C3F808141268D268C3F80C24704700BFB7
:104D10003C1E0020001084502DE9F04F85B0002982
:104D200000F0EC809046002A00F0E880054600285C
:104D300000F029819946C36D0E46002B52D1B9F57A
:104D4000805F54D295F83C30042B00F0FF800027A0
:104D50004FF0FF31AC48FEF7D9FD002840F0D58078
:104D60000020FEF703FE002840F0D8800123A7486A
:104D7000C0F81038D0F81049002CFBD16B6B032B16
:104D80003ADC002B3BDAA24CA04AD2F81039002BB7
:104D9000FBD1002F40F0D1806B6BEA6D23F0040350
:104DA000032B9A4BD3F8040A00F09F80012A0CBF12
:104DB00040F0800040F02000FEF70CFD0022934BF5
:104DC0000120C3F81028FEF7D1FD002840F0B18083
:104DD0008D48FEF7A3FD002840F0A480204605B0D2
:104DE000BDE8F08F012BADD1B9F5803FAAD3894C36
:104DF000204605B0BDE8F08F063B012BC3D8AB6B56
:104E0000012B00F2BE80EB6D012B7CD82B6E012BA9
:104E100000F2E8802846FFF7F5FE04460028B3D1EB
:104E20002846FFF77BFE04460028ADD16B6B072BAD
:104E3000A9D801229A4012F08A0F40F0D58012F0D2
:104E4000440F40F0BA80D2079DD523F00403032B12
:104E500032680DD02B6ED8F80010012B6B4B0BBFB6
:104E6000C3F8281DC3F8301DC3F82C9DC3F8349D2A
:104E7000EB6D012B654B0BBFC3F8282CC3F8302C0E
:104E8000C3F82C9CC3F8349C6B6B23F00403032BF6
:104E900000F0A2802B6E012B14BF20208020FEF793
:104EA0009FFC044600287FF46FAF584BD3F810499D
:104EB000002CFBD1696B072914D801228A4012F01B
:104EC0008A0F40F0BB8012F0440F0BD0D3F860245F
:104ED0002A60D3F864246A60D3F86824AA60D3F8FF
:104EE0006C34EB600123AB654EE7012A0CBF40F048
:104EF000400040F01000FEF76DFC5FE7464C204696
:104F000005B0BDE8F08F454C3EE74548FEF794FDFF
:104F10000020FEF72BFD00283FF428AF4148FEF7A4
:104F20008BFD23E74048FEF787FD204605B0BDE82E
:104F3000F08F3E48FEF780FD4AE70423202105F16B
:104F4000100085F83C30FEF7C9FC25E7296B286C7A
:104F500000F0C0F998B9364F2C4C3B681B68C4F878
:104F600000343B685B68C4F804343B689B68C4F851
:104F700008343B68DB68C4F80C34296B31B1012775
:104F8000E6E62C4C00E74FF4710427E74FF0100BD6
:104F90002B6D05EB0B0A0193EB6CCDF808A0009389
:104FA000286CD5E91123CDF80CB000F061FA002887
:104FB00051D1002385F83C30E1E72A68134BC3F850
:104FC00060246A68C3F86424AA68C3F86824EA689D
:104FD000C3F86C246B6B38E7EB6D012B14BF10200A
:104FE00040205CE7144CCFE62A68084BC3F8402405
:104FF0006A68C3F84424AA68C3F84824EA68C3F876
:105000004C246B6B21E700BF501E00200010845021
:105010000100F1000500F1000B00F1000300F100B8
:1050200098580000B0580000F0580000D058000018
:105030003C1E00200200F1000400F100D3F84024DF
:105040002A60D3F844246A60D3F84824AA60D3F8CD
:105050004C34EB6046E73B6859461B685046C4F841
:1050600000343B685B68C4F804343B689B68C4F850
:1050700008343B68DB68C4F80C34FEF72FFC98E773
:105080002DE9F04109B302B30446002800F0AF80D7
:105090001D46436B0E46072B1BD05DB9032B10D169
:1050A000836D73B945668566C5660567102500F191
:1050B00064030B602B4631462046BDE8F041FFF704
:1050C0002BBE2F463846BDE8F081764F3846BDE806
:1050D000F081C36D002B40F08D80B5F5805F80F0CE
:1050E00090801DB9A36D002B40F08B804FF0FF31F5
:1050F0006D48FEF70BFC002840F08F800020FEF783
:1051000035FC002840F085800123684AC2F8103839
:10511000D2F81039002BFBD1636B032B4FDD063B1C
:10512000012B4ED8A36B012B6DD8E36D012B78D8E2
:10513000236E012B77D82046FFF764FD0746002831
:1051400040D12046FFF7EAFC074600283AD1626BBF
:10515000072A36D80123934013F08A0F40F081804C
:1051600013F0440F6FD1DB072BD501224F4BC3F84F
:105170007C24C3F8BC543168002D56D1A16D09B907
:10518000C3F82425494BD3F81079002FFBD1616B6C
:10519000072917D801228A4012F08A0F6FD112F026
:1051A000440F0FD0D3F860242260D3F864246260E7
:1051B000D3F86824A260D3F86C34E36002E0002BDB
:1051C000B0DA3B4F394AD2F81039002BFBD101201D
:1051D000C2F81038FEF7CAFBB8B93348FEF79EFB99
:1051E00000283FF46FAF3348FEF726FC6AE74FF420
:1051F000710767E7012B7FF474AFB5F5803FFFF4CB
:1052000070AF2D4F5EE72D4FDCE72D48FEF714FC05
:10521000E3E72C48FEF710FC76E72B48FEF70CFC82
:105220006CE72A4FCEE72A4FCCE7E26D012A33D054
:105230001020C3F8301CC3F8345CFEF7D1FA0746DF
:1052400000289FD0BEE72268184BC3F8602462682C
:10525000C3F86424A268C3F86824E268C3F86C2425
:1052600083E72268114BC3F840246268C3F84424E2
:10527000A268C3F84824E268C3F84C2475E7D3F861
:1052800040242260D3F844246260D3F84824A2600A
:10529000D3F84C34E36095E7C3F8281C4020C3F8EA
:1052A0002C5CCAE70B00F100501E00200010845057
:1052B0000100F100F05800000500F1000200F100CB
:1052C000D0580000B0580000985800000300F100CA
:1052D0000400F1007F280CD849B1032901D0064809
:1052E000704706497F280CBF0846002070470846D3
:1052F00070470248704700BF0300F7000100F70045
:105300001A4A431C4FEAC00C70B4C2F800350CF5C1
:105310007F0303F5044372B61D68BFF34F8F62B677
:105320000024134BC2F800459D421CD0A1B1114D81
:10533000861C6544C2F8006572B62D68BFF34F8FB6
:1053400062B69D42C2F800450DD07F280BD80329D4
:1053500007D070BC084870477F2804D870BC002074
:1053600070477F28FAD170BC044870470090035002
:10537000501A84500884FF000300F7000100F70072
:10538000B9B90D4AC30003F57F03013010B403F52A
:105390000443C2F8000572B61C68BFF34F8F62B6B3
:1053A000064B0748C2F800159C4208BF002010BCFD
:1053B00070470448704700BF00900350501A845053
:1053C0000100F7000300F70000200122024BC3F8A0
:1053D000380AC3F8782470470010845009B11D487A
:1053E000704730B401241C4B1C4DC20002F57F02F3
:1053F0002044C5F8004502F50442C3F80811C3F87B
:105400000011C3F80411C3F8000572B61168BFF3A8
:105410004F8F62B6124A914219D11C6000E0A0B9C8
:10542000D3F80021D3F80811D3F804010A43F6D0C9
:1054300049B90C4B002818BF18460022064BC3F888
:10544000002530BC70470848F7E70648F5E70748ED
:10545000F3E700BF0C00F1000090035000008450FF
:10546000001484500200F7000100F7000600F70066
:105470002DE9F0470024CCB006468A46174621465F
:1054800074220EA89946579DDDF85881FDF7EBF878
:10549000802221462CA82B94FDF7E5F88423B5F54E
:1054A0007F6FCDE90A440D940C94059374D8FFF7EF
:1054B0001BFC2BAC05AB01934946DDE95423384670
:1054C0000295009400F08CF8002875D107231B93F7
:1054D000012300222693F7180123DFF8ECC0F10026
:1054E00001F57F01CDE92423CDF868A01C901E961C
:1054F00001F50441CCF8007572B60A68BFF34F8F0E
:1055000062B6324BCCF800059A424AD002220DF125
:1055100013038DF813201B7810210EA88DF874301A
:10552000FEF7DCF910220DF12009009220460599C2
:105530000AABCDF8049006AAFFF744F9074600BB72
:10554000012410E0102D2E4628BF10260EA9324649
:10555000FEF7C0F910210EA8FEF7C0F90134AD1B0B
:105560003744E4B226D0059B4A4606A90EA88DF81A
:10557000AC40FFF785FD034608EB0700002BE1D0A8
:105580001F46742200210EA8FEF7A6F9FFF7ACFB18
:1055900038464CB0BDE8F0870D4F38464CB0BDE8FA
:1055A000F0870C4B1B68B3420BD103220DF11303A0
:1055B0001A70B0E72F46E4E7074F38464CB0BDE815
:1055C000F087064FE4E700BF00900350501A845064
:1055D0000F00F100AC1E00200E00F1000C00F100E5
:1055E0002DE9F041002482B00A9D0194B5F57F6F4A
:1055F00040D8ED00B5F5807F1E4634BF0323042359
:1056000001F1FF3CBCF13F0F0C46009332D888B348
:10561000174666BB089A6AB3099A116851B3A21972
:105620001344994226D3089B01462246581CFEF794
:1056300051F9089B04F102081C440023637026BB47
:10564000089BFF2D009503EB080017D92B029BB296
:1056500043EA1523022201A90193FEF73BF908F161
:1056600002030020099A136002B0BDE8F0810AB17C
:10567000402ECFD9094802B0BDE8F0810122694629
:10568000FEF728F908F10103EBE7089B324603EB2C
:1056900008003946FEF71EF9B044D1E70600008045
:1056A00000201870704700BF431810B501D21F2AA0
:1056B00001D9002010BD013902F014030144102B60
:1056C00080EA01043CD009DC8BB1042BF1D11F2C02
:1056D00040E840F315D941E840F10EE0142BE8D141
:1056E0001F2C40E8C0F30CD941E8C0F105E01F2CA5
:1056F00040E800F305D941E800F11C460B468C4216
:10570000D7D122F01402013A0A2AD2D801A151F8C5
:1057100022F000BF635700005D5700004F570000A4
:10572000B3560000B3560000B3560000B356000055
:105730006957000063570000575700004F5700009B
:105740001F2C40E880F3DCD941E880F1D5E713F461
:10575000001FAFD1ADE713F4801FFAE75B02A9D5B4
:10576000A7E713F4002FF4E713F4802FF1E700BF4D
:1057700008B5074B044613B10021AFF30080054B79
:105780001868836A03B19847204600F043F800BFC9
:1057900000000000045A000070B50D4D00260D4CAD
:1057A000641BA410A64209D10B4D00260B4C00F03F
:1057B00033F8641BA410A64205D170BD55F8043B14
:1057C00001369847EEE755F8043B01369847F2E773
:1057D000101F0020101F0020101F0020141F002089
:1057E000884210B501EB020402D98442234607D84F
:1057F000431EA14208D011F8012B03F8012FF8E74E
:10580000024401468A4200D110BD13F8014D02F84E
:10581000014DF7E7FEE700BFF8B500BFF8BC08BCD4
:105820009E467047F8B500BFF8BC08BC9E4670475E
:1058300054464D5F43525950544F0054464D5F50AB
:105840004C4154464F524D5F5345525649434500D3
:10585000315A0000295A0000215A0000395A00002C
:10586000415A0000495A0000515A0000595A00009C
:10587000615A0000695A0000715A0000FF8FFFFF53
:10588000FF8FFFFFFE8FFFFFFE8FFFFFFD8FFFFFEC
:10589000FC8FFFFFFC8FFFFF4661696C20746F2057
:1058A00061637175697265206D757465780A0000B1
:1058B0004661696C20746F20696E637265617365FF
:1058C00020504D20636F756E7465720A00000000F1
:1058D0004661696C20746F206465637265617365ED
:1058E00020504D20636F756E7465720A00000000D1
:1058F0004661696C20746F2072656C656173652008
:105900006D757465780A0000436F756C64206E6F66
:1059100074206C6F636B20706F7765722073617693
:1059200065206D75746578006D757465785F667255
:1059300065652063616C6C65642077697468204ECE
:10594000554C4C20706172616D6574657200000089
:1059500043616E277420696E697469616C697A6548
:10596000206D757465782C20776173204E554C4CF2
:105970000D0A00004661696C20746F20756E6C6FB3
:10598000636B206D757465780A000000637478207D
:1059900063616E6E6F74206265204E554C4C000042
:1059A0000A637478206973204E554C4C0A0000003D
:1059B00067E6096A85AE67BB72F36E3C3AF54FA5A0
:1059C0007F520E518C68059BABD9831F19CDE05BCC
:1059D000D89E05C107D57C3617DD703039590EF7D2
:1059E000310BC0FF11155868A78FF964A44FFABE98
:1059F0000123456789ABCDEFFEDCBA9876543210AF
:105A0000F0E1D2C3B01E0020000000000000000042
:105A10000000000000000000000000000000000086
:105A20001FB51748694627E01FB51648694623E0A9
:105A30001FB5154869461FE01FB5144869461BE0AD
:105A40001FB51348694617E01FB51248694613E0B1
:105A50001FB5114869460FE01FB5104869460BE0B5
:105A60001FB50F48694607E01FB50E48694603E0B9
:105A70001FB50D486946FFE7FBF778FF1FBD000023
:105A8000F5220000FB220000F52000005D1B000055
:105A9000951B000029230000A5230000ED23000032
:0C5AA000F91B0000931C0000571B0000C5
:107C00007FE97FE9FAF74CBC7FE97FE9FAF757BCD7
:107C10007FE97FE9FAF77CBC7FE97FE9FAF76FBC7F
:107C20007FE97FE9FAF75ABC00000000000000007D
:107C30000000000000000000000000000000000044
:107C40007AFFFFFF90ED00E004200020201F0020BD
