:020000040000FA
:10800000E0DA0020A99B0000B5EE00007D9B000097
:108010007D9B00007D9B00007D9B00007D9B000000
:108020000000000000000000000000008994000033
:108030007D9B000000000000199400007D9B000063
:108040001995000019950000199500001995000078
:108050001995000019950000199500001995000068
:108060001995000019950000199500001995000058
:108070001995000019950000199500001995000048
:108080001995000019950000199500001995000038
:108090001995000019950000199500001995000028
:1080A0001995000019950000199500001995000018
:1080B0001995000019950000199500001995000008
:1080C00019950000199500001995000019950000F8
:1080D00019950000199500001995000019950000E8
:1080E00019950000199500001995000019950000D8
:1080F00019950000199500001995000019950000C8
:1081000019950000199500001995000019950000B7
:1081100019950000199500001995000019950000A7
:108120001995000019950000199500001995000097
:108130001995000019950000199500001995000087
:1081400019950000FFFFFFFF53B94AB9002908BF86
:1081500000281CBF4FF0FF314FF0FF3000F00CB88B
:10816000ADF1080C6DE904CE00F008F8DDF804E08C
:10817000DDE9022304B07047704700BF2DE9F047E6
:1081800086468C460846089E154674461946002BBE
:1081900040F0C1808542B2FA82F245D94AB1C2F1BB
:1081A000200300FA02FC954094402EFA03F343EAC0
:1081B0000C0C4FEA154EA8B2230CBCFBFEF80EFBCC
:1081C00018CC08FB00F943EA0C43994528D9EB1871
:1081D00008F1FF3704D2994502D9A8F102072B44D0
:1081E000A3EB0903A4B2B3FBFEFC0EFB1C330CFB98
:1081F00000F044EA0344A04214D92C190CF1FF33D7
:1082000004D2A04202D9ACF102032C44241A43EA5E
:1082100007401EB1D440002334607360BDE8F0878E
:108220004746DDE76346F1E792BB431B01214FEA76
:10823000154EAFB2200CB3FBFEFC0EFB1C330CFB47
:1082400007F840EA0343984561D9EB180CF1FF3079
:1082500004D2984502D9ACF102002B44A3EB0803E9
:10826000A4B2B3FBFEFC0EFB1C330CFB07F744EA85
:108270000344A7424DD92C190CF1FF3304D2A74275
:1082800002D9ACF102032C44E41B43EA0040C0E7EE
:10829000C2F120039540944020FA03F12EFA03F333
:1082A0004FEA154E9040AFB20343B1FBFEFC0EFB0C
:1082B0001C10190C0CFB07F841EA0041884522D933
:1082C00069180CF1FF3004D2884502D9ACF10200E4
:1082D0002944A1EB08019BB2B1FBFEFC0EFB1C1173
:1082E0000CFB07F743EA01439F420ED9EB180CF150
:1082F000FF3104D29F4202D9ACF102012B44DB1BB7
:1083000041EA004193E76046E3E76146F7E76046EC
:10831000A4E76346B8E7834206D916B900210846A8
:108320007CE7C6E900E0F9E7B3FA83F78FB9834247
:1083300001D3724508D8BEEB020460EB03030120B1
:108340009C461EB9002169E73846FAE7C6E9004CA9
:10835000F8E7C7F1200CBB400EFA07F522FA0CF43F
:108360002EFA0CF1BA401C4320FA0CF3B8404FEA45
:10837000144901431FFA84FEB3FBF9F809FB1830D6
:108380000B0C08FB0EFA43EA00439A4540D9E31868
:1083900008F1FF3004D29A4502D9A8F10200234423
:1083A000A3EB0A0389B2B3FBF9F809FB183308FB06
:1083B0000EFE41EA03418E452CD9611808F1FF33C6
:1083C00004D28E4502D9A8F10203214443EA0040B9
:1083D000A1EB0E01A0FB02984145CE46434602D3D5
:1083E00006D14D4504D20138B9EB020E68EB040307
:1083F000002EA7D0B5EB0E0261EB030101FA0CFCD5
:1084000022FA07F3F9404CEA0303C6E9003199E781
:108410004046C5E74346D9E7034613F8012B002A37
:10842000FBD1181A013870472DE9F04F89B0344D4F
:10843000284607F085FB034650B92A683149039264
:10844000314A0090CDE90102012206F0CFF84EE05A
:10845000AB680021049328465B6806AA9847002869
:108460001CDBDDE9064A294B4FF0FF39A4FB03B2C0
:1084700003FB0A23059358461FA3D3E9002305995C
:10848000FFF762FEDFF88880059BD94578EB030390
:108490004FF0000706460BD26FF085001D4B03908E
:1084A0000293002301221846CDE900331549CCE799
:1084B000194BA4FB03B403FB0A440FA3D3E9002325
:1084C00021465846FFF740FED94578EB04040346A1
:1084D000E2D3864202D26FF01500DFE7049A0097DC
:1084E0001468394632462846A0470028D6D10020D5
:1084F00009B0BDE8F08F00BF00CA9A3B0000000041
:10850000BC0001000003010014080100002D31012E
:10851000FFC99A3B2F080100C05C15000000000055
:108520002DE9F04F87B0054617461E460391836834
:1085300004AA5B689847002831DBDDE9044AA7FB01
:1085400004B307FB0A371AA3D3E900234FF0FF391E
:1085500058463946FFF7F8FDDFF85C80D94578EBDF
:10856000070302901ED312A3D3E90023A6FB04B491
:1085700006FB0A4458462146FFF7E6FDD94578EB4D
:10858000040403460ED30299AA6899420DD3BDF89C
:108590004010284600911468DDE90221A04707B089
:1085A000BDE8F08F6FF08500F9E76FF01500F6E792
:1085B00000CA9A3B00000000FFC99A3B2DE9F04F2A
:1085C00091B0009302F004030293C2F3C20301339B
:1085D000840705460E46DDF868900392059340F047
:1085E000BB81041D30B1072909D86FF01B0011B001
:1085F000BDE8F08F01F00706341DC6F10806009BA8
:108600004FF000084FF0040A591E4FF0FF33474661
:108610000193C3465346CDF810800DB1009A2260F5
:108620000598002800F3E8809848009A824203D316
:1086300097488242C0F0E080039AA4EB050E9207AF
:108640004FEA9E0000F103810F2F00F2B180002D50
:1086500000F0058107F140020DEB020C019A0CF8C5
:10866000200C0CF8102C049801300490E7E07A28D4
:108670005DD84B280ED8472859D829282DD8252829
:1086800052D054D820287AD02338D0F1000B4BEBAD
:10869000000B74E04C382E2849D8DFE800F0704811
:1086A000484848484848484848484B484848484847
:1086B00048484859484B4B595959704B6D48704878
:1086C000184B184848827F4B48484B487F00002091
:1086D0004FF0000B4FF0040A38E001222A38C0B2F4
:1086E00002FA00F010EA0E0F49D110F0625C2FD1AF
:1086F00010EA020B43D06046013C5444B4FBFAF448
:108700000AFB04F4002D61D0A3EB050CA4446645DC
:10871000FFF46BAF002868D1042B47D159F8043B14
:108720002360042304342AE0019A013A01924FF0B5
:10873000000B24E011F8010C6C2834D1002011F852
:10874000023C83466C2BC5D14FF0080A5346D3E751
:1087500009F1070929F00709073424F00704F9E8AB
:1087600002AB35B106982044B0423FF63EAFC4E9B3
:1087700000AB4FF0000B08344FF0080A534611F8D5
:10878000010F002878D0BBF1000F7FF470AF2528CF
:10879000F5D14FF0010B019B013301934FF0040A17
:1087A000ECE7584694E700208346A5E7082B02D063
:1087B0006FF015001BE709F1070929F00709F9E82F
:1087C0000223C4E9002308230834D8E768B9042B3E
:1087D00002D109F10409A4E7082BE9D109F107093D
:1087E00029F0070909F10809EDE7059A013A059210
:1087F00059F8042B009210E7039A900720D54FF008
:10880000010CA4EB050E4FEA9E00BEF5007FCFD20F
:108810000F2FCDD8F5B107F140020DEB020E019AF2
:10882000C0B20EF8200C0EF8102CBCF1000F3FF473
:108830001AAF60F07F000EF8200C08F10108013734
:10884000C5F108024FF6DA7E0434069297E74FF03E
:10885000000CDAE7BCF1000F01D00136EFE7029817
:1088600002360028EBD10098CDE90631FFF7D4FDA0
:10887000DDE906310644E2E7631BB3F5806F97D26A
:1088800045B9A6F10804E018B1E600BFF4FF000006
:1088900078120100029A9B0828602B709DF8103016
:1088A000C2B1EB7085F80280B8F1000F05D000224C
:1088B00008A8C5F1010C97420ED14FF0000AC5F18E
:1088C00001030DF1200901930DF1300B574512D131
:1088D000601B8CE66B70E5E710F8013B190608D5C4
:1088E00004EB0C0E764503F07F03FFF47EAE04F834
:1088F000013B0132DFE7B8F1000F03D099F9002006
:10890000002A17DB029BD3B11AF80B2004F8012BC5
:108910000022019B981820448642FFF466AE99F825
:108920000000009904F8010B2046039207F03BFB7E
:10893000039A14440AF1010A09F10109C6E799F8FA
:10894000002055F822300093029B009845F8223011
:10895000FFF762FD421CDCE76FF00D0047E600BF49
:10896000014B1860704700BF80C5002080B50546E8
:108970000E461746984605F087F9034607F030FB88
:108980000446DFF81890424649F800303946304630
:10899000A84754F8090001F081F900BF0800000061
:1089A0002DE9F047058B04462807904611D402298B
:1089B00005F0070540F0CD80204606F014F978B1A7
:1089C0000138218B042811D8DFE800F0C3106D8531
:1089D000950001290CBF45F0100545F020052583C1
:1089E00088F31188BFF36F8FBDE8F08701F0070AA5
:1089F000AA4500F0A6800027B9463E46A368002B92
:108A000000F0BD8041F00801218388F31188BFF395
:108A10006F8FA168002900F0BB800D68002900F06D
:108A2000B780334652462046D1F80480C047002D17
:108A300076D02B6829461D46F0E701F007035A1F40
:108A4000012A1BD8002221F00701062B276889B2D2
:108A5000C4E9002209D13B4603E0628B0132628304
:108A60001B68002BF9D141F002012046218306F05A
:108A7000BAF800287BD041F0200177E0042B0AD11E
:108A800021F0070189B22046218306F0ACF810B12D
:108A900041F020012183218B01F0070AAA4550D023
:108AA0000027B946AAE7236921F0070141F0060132
:108AB000062DD3F8009021832DD1B9F1000F40D0BD
:108AC00041F00801218388F31188BFF36F8F20469E
:108AD0003949C84729E021F00701236941F0040121
:108AE00089B2042DD3F804902183E6D000274FF0FB
:108AF000040A3E4682E721F00701236941F005019F
:108B000089B2052DD3F808902183D6D000274FF0E5
:108B1000050A3E4672E700274FF0060A3E466DE71B
:108B20002B4687E7B9F1000FD1D14FF02003EFF3C7
:108B3000118883F31288BFF36F8F238B23F0080310
:108B40002383258BEA062ED525F01003238305F019
:108B500007056669218B002EBFF66FAF00232768DB
:108B6000C4E9003321F0070141F001012183218B89
:108B70004FF0000901F0070AAA457FF43FAF002F2C
:108B80009BD041F00801218388F31188BFF36F8FD8
:108B9000002FC7D03D68394633465246204606F07E
:108BA0004EF82F46F4E7AB067FF51AAF25F0200309
:108BB000238305F00705FFE66BEC00000122024B62
:108BC0000020C3F8402570470090034020B1034BBC
:108BD000800143F001031847704700BFC003010044
:108BE00006F01CBC2DE9F84F81462F480F4606F0D1
:108BF000D8F8064670B92D4C0546A0464FF0010B3B
:108C0000DFF8ACA0544507D3B9F1000F02D04FF004
:108C1000010AE5B9BDE8F88F237B73B12368DB68EF
:108C20000BB12046984723681B6943B96368042247
:108C30002046196800F0C4F801361034E2E72046F7
:108C400098470028F2D00BFA06F31D43F4E7A94633
:108C500095FAA5F4B4FA84F40AFA04F3260108EBB1
:108C600004146FEA030B25EA0305237B63B158F86C
:108C700006301B6993B9464473680422204619687C
:108C800009EA0B0900F09CF8002DE1D127B14FF45F
:108C9000A470002104F0DEFF4D46BAE72046984755
:108CA0000028F1D1E7E700BFD0C70020A0030100F2
:108CB000B0030100014B53F820007047C8030100C6
:108CC00008B5034608462BB1044A136000F07EFA4B
:108CD000002008BD6FF01500FBE700BF84C5002031
:108CE0000023054A4FF400411370044A04481360FE
:108CF000044A1360FFF7E4BF8CCD0020C8C70020F2
:108D00009FED0000CCC7002070B50B4D297841B90C
:108D10000120FFF767FF094C094EB44202D301233B
:108D20002B7070BD63685B791BB1236820469B681C
:108D300098471034F1E700BF8CCD0020A00301005C
:108D4000B003010010B50446064806F02AF83CB10D
:108D5000054BD3E8EF1F0139C3E8E21F002AF8D121
:108D600010BD00BFC8C70020CCC7002070B50A4B9B
:108D700005461B689847094C094EA860B44200D3C9
:108D800070BD63685B7923B12368294620461B6860
:108D900098471034F2E700BF84C50020A00301000B
:108DA000B0030100044A054B9B1AB1EBD30F34BF4B
:108DB00052F831000020704700030100A0030100B9
:108DC000084B10B4C31A44681B1101332371436864
:108DD0009A7101224368196043685A7110BC05F00A
:108DE000FEBF00BFA00301002DE9F04F85B002AF28
:108DF0000446D7E90EA90E46934698463D6BBAF154
:108E0000000F33D0C7F80490CDF8009010215346DE
:108E100000207A6BFFF7D2FB0146154A04F00704E5
:108E20000BF0070BE40044EA8B1402EA41221443DE
:108E300044EA055417350D4425F00705ADEB050D43
:108E400002ADBAF1000F07D0CDF8009053467A6B0F
:108E500005F11000FFF7B2FB434622463146284693
:108E600005F0C0FF0C37BD46BDE8F08F5146D4E792
:108E700000FE0F000EB403B503AB53F8042B0146FC
:108E80000448019301F0E0F802B05DF804EB03B090
:108E9000704700BF17EE0000CA0605D48B064CBF12
:108EA00002490349FFF7E6BF704700BF4B100100BE
:108EB0004A1001002DE9F04F89B09A46DDE914739C
:108EC0009DF84CB00593169B04460D46179E0692DE
:108ED0000493BBF1000F00F0858006F008030793B0
:108EE00005F07EFF06F002090246002849D0204620
:108EF0008549FFF7BFFF8046B9F1000F08D016F093
:108F0000440F40D12A4620468049FFF7B3FF8044F2
:108F100006F0010353B17E4B204653F82B207D4BC6
:108F20007D49002A08BF1A46FFF7A4FF06F0080390
:108F3000002B54D0794B204653F82B207849FFF76B
:108F400099FF0546069B2BB11A4620467549FFF747
:108F500091FF0544BAF1000F05D0524620467249F0
:108F6000FFF788FF05444544002F49D1049B002B9F
:108F70004FD1F30700F1C18031462046FFF78CFF47
:108F8000B5E08046B8E7694B18680028BFD0684B49
:108F90004FF47A791B684FF46161B5FBF3F5B5FBCB
:108FA000F0F300FB135509FB05F5B3FBF1F2B5FB3C
:108FB000F0FE4FF03C0C01FB123100FB1E55B1FBE3
:108FC000FCF309FB05F5B5FBF0F50CFB131120468E
:108FD0000091CDE901E55749FFF74CFF97E706F00F
:108FE0000805AFE7BAF1010F06D1002F65D1049B48
:108FF000002B7CD000250CE0002FF8D04E485DE01F
:109000004E483B4622464E4905F000FB049B002B90
:1090100069D0DFF83081DFF83091049F3146102F9E
:10902000204628BF10274FF0000AFFF735FF5545AF
:1090300046DC059B494620461A78FFF71BFF4FF098
:10904000010A1AF0070F03D141462046FFF712FF2D
:1090500057453CD9059B4946204613F80A20FFF79F
:1090600009FF0AF1010ABAF1100FEAD14FF0000A24
:1090700020463649FFF7FEFE5246059B20469A5C85
:10908000334B995C11F0970F08BF2E223149FFF73F
:10909000F1FE0AF1010ABAF1100F1DD01AF0070F04
:1090A00003D141462046FFF7E5FE57455246E4D836
:1090B00041462046FFF7DEFEEBE720485D46A0E78D
:1090C00041462046FFF7D6FE0AF1010AAFE72046E7
:1090D0002149FFF7CFFEC4E7059B3B440593049B62
:1090E000DB1B049399D1BBF1000F7FF442AF204604
:1090F00009B0BDE8F04F05F0B7BE2046054A064965
:10910000FFF7B8FE38E700BF870801008B080100B1
:10911000D8030100820801006E0E0100EC0301007B
:10912000B0080100B6080100BA080100D8C7002045
:10913000D4C700209408010033EE000017EE0000B1
:1091400049A00000C7080100BF080100C9080100CC
:109150005F110100CB080100C50801002DE9F041B5
:109160000F884B6805460C4690468E6886B0C7F35C
:1091700082175BB1144A9B1A43F3CF01002920DB0D
:109180002078C0F3C200FFF70DFE0346214651F8D8
:10919000102B6088C2F34A22002A01EB020408BFA8
:1091A00000210022C0F30B10CDE90408CDE9021420
:1091B0002846314601970092FFF77CFE06B0BDE8D5
:1091C000F0810023E2E700BF00030100002101233A
:1091D000064A904206D8064A01B901231360054B9E
:1091E00018607047012140085B00F2E740420F0021
:1091F000D4C70020D8C70020014B00201960704759
:10920000F0C700200122024B02481A7005F02CBE64
:109210008ECD00201C04010010B5064B0C461868CA
:10922000FFF748FD2146BDE8104003460F220248E3
:10923000184700BFF0C700201C040100F8B50D4618
:109240000446064F4618B44201D12846F8BD14F82A
:10925000011BBB6801485B689847F4E7A800010060
:10926000014910220A60704710ED00E072B64040DC
:1092700080F31188BFF36F8FBFF34F8F30BF62B69B
:10928000BFF36F8F704700BF72B6494081F31188FA
:10929000BFF34F8F20BF80F3118862B6704700BFC5
:1092A00070B506460D4686B0002938D000248B687C
:1092B000012205934B68204604930B681B490393D6
:1092C0001B4BCDE900440293234605F0DBFD6B699F
:1092D000012205932B6920460493EB6813490393FD
:1092E000144B0094CDE90143234605F0CBFDEB6917
:1092F00001220393104B2046CDE901430B4923463D
:10930000009405F0BFFDAB69012203930B4B20468F
:10931000CDE9014305492346009405F0B3FD2946F4
:10932000304606B0BDE8704003F0C4BE80030100C3
:1093300008090100370901006609010075090100EB
:1093400040B2002807DB01234109034A00F01F0057
:10935000834042F82130704700E100E0054B4209AC
:1093600053F82220012300F01F0003FA00F0104000
:10937000704700BF00E100E040B2002801F10101A8
:10938000ACBF00F16040064B4FEA4111C9B2ABBF20
:1093900000F5614000F00F0080F800131954704789
:1093A00014ED00E030BFFFF7FDBF00BF0B4A08B56A
:1093B0000B4B22F07F029A60BFF34F8FBFF36F8F8A
:1093C000D3F8882022F47002C3F8882003F016FF37
:1093D00004F0C0FC00F0DCFB03F05AFF008000004A
:1093E00000ED00E0094A0A499368096858679967DF
:1093F00008494B6843F080534B60002383F3118886
:10940000BFF36F8F9368986F704700BF58CD0020EF
:10941000E407010000ED00E018498A6882F87DE069
:109420004FF030001044EFF3098C80E8F01F20204B
:1094300080F31288BFF36F8F114F4FF000664A69B7
:109440008A603E604FF07004141920680D4C206053
:1094500092F97DE0506F0023536780F3118802F189
:10946000300090E8F01F8CF3098802F1000004B589
:1094700005F027FDBDE804407047000058CD0020EE
:1094800004ED00E0F4C700201EF0040F0CBFEFF362
:109490000880EFF30980816911F8021C0229FFD0CE
:1094A00001B505F0FFFC01BD42F8203C009B0C49D2
:1094B00042F81C3C019B21F0010142F8183C029B40
:1094C00042F8081C42F8143C4FF0807342F8043C08
:1094D000002343674FF43C43203A0265C36770475B
:1094E0006D8900000A4B046F98600A4B1C60036E84
:1094F00083F30B88104681F30988002163B681F35A
:109500001188BFF36F8F00220023FFF72FFA00BFEF
:1095100058CD0020F4C7002001B5EFF30580A0F17D
:1095200010004FEAC0000449014409C99847BDE84A
:109530000140024908470000F80001009D95000025
:10954000114B124A2DE9F041D518013DB5FBF3F559
:10955000DFF83C805D430F4B074608EB0304013CFA
:10956000B4FBF3F403FB04540E1B30460A4906F027
:109570001AFD701942460021083E06F021FD3E67A3
:1095800004F10800BDE8F0810100000000000000C7
:109590000800000004000000B0030100044B9968BB
:1095A0005869884203D003494FF080520A607047DF
:1095B00058CD002004ED00E0F0B50024414B85B00B
:1095C0000293074623460E4601222046CDE9004479
:1095D0003D4905F07AFC3D4B9B6ADD066FD53C4B5F
:1095E0002046CDE90143012223463749009405F086
:1095F0006CFC1120354B9B6A1C070AD5354B0122A8
:109600000293002330491846CDE9003305F05DFC94
:1096100012202E4DAB6A99071FD500242E4B012234
:10962000029320462346CDE90044274905F04DFC2E
:109630006B6BAA6A12060FD50393284B0122CDE962
:109640000143204623462049009405F03EFC1FB10B
:10965000AB6A23F08003AB6213201C4B9B6ADD07CF
:109660000AD51F4B01220293002317491846CDE962
:10967000003305F02AFC1420144B9B6A9C060AD583
:10968000184B0122029300230F491846CDE90033FD
:1096900005F01BFC15200D4B9A6AD10658BF9A6A3B
:1096A0009A6A920642BF5A6A22F400525A629A6A31
:1096B00042F0FF029A620023337005B0F0BD102023
:1096C00098E700BFA30901008003010000ED00E05E
:1096D000B9090100EC090100FF090100170A0100A6
:1096E0002D0A01004C0A0100F0B50024434B85B05F
:1096F0000293074623460E4601222046CDE9004448
:109700003F4905F0E2FB3F4B9B6ADB0465D53E4BCE
:109710002046CDE90143012223463949009405F052
:10972000D4FB1720374B9B6A1D050AD5374B012206
:109730000293002332491846CDE9003305F0C5FBFA
:109740001820304DAB6A9C051FD50024304B0122F8
:1097500020460293CDE900442346294905F0B5FB94
:10976000AB6BAA6A10040FD503932A4B0122CDE9F3
:109770000143204623462249009405F0A6FB1FB171
:10978000AB6A23F40043AB6219201E4B9B6A590558
:109790000AD5214B01220293002319491846CDE92D
:1097A000003305F092FB1A20164A936A13F4807373
:1097B00015D01A4B01220293002311491846CDE916
:1097C000003305F082FB1B200E4A936A43F47F436B
:1097D00093620023337005B0F0BD1620A2E7926AB1
:1097E0009204F1D50E4A1846CDE90132044901220E
:1097F000009305F06AFB1C20E6E700BF7B0A01002E
:109800008003010000ED00E0910A0100EC09010075
:10981000A20A0100BB0A0100D00A0100EB0A010004
:109820004C0A01001FB500243E4B3F490293012220
:1098300023462046CDE9004405F047FB3B4B9B6A9D
:1098400099016DD53A4B2046CDE9014301222346CB
:109850003549009405F039FB1E20344B9B6ADA0130
:109860000AD5344B0122029300232F491846CDE933
:10987000003305F02AFB1F202C4B9B6ADB020AD524
:109880002D4B01220293002327491846CDE90033CE
:1098900005F01BFB0220254B9B6A1C030AD5274BB6
:1098A00001220293002320491846CDE9003305F038
:1098B0000CFB21201D4B9B6A59030AD5204B01222A
:1098C0000293002318491846CDE9003305F0FDFA4C
:1098D0002220164B9B6A9A030AD51A4B0122029347
:1098E000002311491846CDE9003305F0EEFA232094
:1098F0000E4B9B6ADB030AD5134B01220293002314
:1099000009491846CDE9003305F0DFFA2420074A5B
:10991000936A6FEA03436FEA1343936204B010BD86
:109920001D209AE7030B01008003010000ED00E019
:109930001B0B01002E0B0100480B0100720B0100F4
:10994000900B0100B50B0100CF0B01002DE9F04396
:10995000784B0446D3F8048089461646002591B01A
:10996000C8F3080785F31188BFF36F8F02F07F43B8
:10997000B3F17F4F25D112F0010322D1510603D458
:1099800032070DD401250DE06B4A1846CDE90132AE
:109990006A490122009305F098FA16F0040600D0F7
:1099A0004C4600254FF00009FB1E8DF81F90092B37
:1099B00000F2A680DFE803F0079A9E96A4A4A4A470
:1099C000A4A22C46EEE75E4B0122CDE901930023D1
:1099D0005A491846574FCDF8009005F076FA8DF8A1
:1099E0001F90FE6A16F0020605D0564BCDE9019392
:1099F000CDF8009006E0FB6A002B0BDA524B009684
:109A0000CDE901630023012218464C4905F05DFAB7
:109A1000002330E0FB6A5B00FAD54C4B0122CDE914
:109A20000163304633464549009605F04EFA7B699E
:109A3000A26943F480737B61BFF34F8FBFF36F8FD5
:109A40007B6932F8022C23F480737B61BFF34F8F64
:109A5000BFF36F8F4DF602739A422CD12368012217
:109A600003933B4B3046CDE90163344933460096BE
:109A700005F02BFA23689DF81F20CAB908AE04F13F
:109A80002007324620686168083403C2BC4216468B
:109A9000F7D10F9A002D47D0C2F3080121B96FEA20
:109AA00052226FEA42220F92184608A9FFF7F8FBEC
:109AB00011B0BDE8F083BB6ADBB22BB101200DF120
:109AC0001F01FFF779FD0FE0BB6A13F47F4F05D04C
:109AD00001200DF11F01FFF707FE05E0BB6AB3F59A
:109AE000803F95D3FFF79EFE0346C4E700200DF1AB
:109AF0001F01E6E700200DF11F01ECE7154B75E7AC
:109B0000154A18F4F87F154B18BF1346103FCDE9DE
:109B10000337134B01220293002308491846CDE96D
:109B2000003305F0D2F973E722F4FF7222F001024C
:109B3000B9E700BF00ED00E0280C01008003010040
:109B40004B0C0100620C0100830C0100910C010020
:109B5000B00C0100CC0C01000F0C0100FA0B01004D
:109B6000F00C0100044B5A6942F010025A615A6924
:109B700042F480625A61704700ED00E0EFF3088024
:109B8000EFF3098101B57246FFF7E0FE01BD00BFAA
:109B9000002320210348C2180133412B82F800130F
:109BA000F9D1704700E100E0002080F31488BFF392
:109BB0006F8F002080F30A8880F30B88FFF710F87E
:109BC00000200E490860BFF34F8F0D4880F30888CE
:109BD00000F03EF8202080F311880A484FF400611D
:109BE000401880F30988EFF314800221084380F3C2
:109BF0001488BFF36F8FFFF7D9FB000094ED00E0EE
:109C0000E0DA0020A0CD0020BFF34F8F0549064BBE
:109C1000CA6802F4E0621343CB60BFF34F8F00BF0A
:109C2000FDE700BF00ED00E00400FA050023184640
:109C30000649D1F89020C2F30722934200DB704717
:109C4000C1F89830C1F8A0000133F6E700ED00E05C
:109C500010B572B6002484F31388FFF7E7FF23469C
:109C60004FF0FF300C4A03F120010133102B42F872
:109C70002100F8D100234FF0FF30074A03F16001C3
:109C80000133102B42F82100F8D162B6BFF34F8F99
:109C9000BFF36F8F10BD00BF00E100E0084B9B6871
:109CA00083420BD1EFF3058343B1064B5A6842F070
:109CB00080525A605A6A22F400425A6203F0EABFA4
:109CC00058CD002000ED00E01FB5094C094A23469D
:109CD0000121094800F018F900230393074B0121E3
:109CE000E41A01A80193029400F018F904B010BD21
:109CF0000000042080C500202C04010088C600203C
:109D000010B50C7A0B6804F01F0223F01F031A43EE
:109D1000CB68640923F01F03054943EA440343F079
:109D20000103C1F89800C1F89C20C1F8A03010BD13
:109D300000ED00E00F281FB504460FD9094B039032
:109D40000293002301221846CDE90033064905F0AD
:109D5000D7F86FF01504204604B010BDFFF7D0FF10
:109D6000F9E700BF070D0100700301002DE9F04F76
:109D70008946144606464FF00008544D89B0C84540
:109D80002DDAD6F804A0BAF1000F4AD0BAF11F0FAD
:109D900017D91AF01F0F14D1D6F800B01BF01F0FFF
:109DA0000FD1584605F0A3F807460AEB0B0001381F
:109DB00005F09DF8874216D06FF01507444B0397C6
:109DC00002E0444BCDF80C80029300230122184698
:109DD000CDE90033404905F093F86FF015042046B3
:109DE00009B0BDE8F08F17F1160FE7D0BC42E5DDF2
:109DF000C5F89870D5F89C10C5F89870D5F8A030C3
:109E000021F01F0143F01F0BD6E900321A4499429A
:109E100002F1FF3A1DD1D34507D13146F8B205F022
:109E20007FF808F101080C36A9E73146C5F89870AB
:109E3000D5F89C3022F01F0203F01F031343C5F82E
:109E40009C30E0B205F06CF810F1160FC5D0441C40
:109E5000E7E7C5F89870D5F8A020013B23F01F0371
:109E600002F01F021343D3453146E0B2C5F8A030DB
:109E7000E8D005F055F810F1160FAED0C5F898707F
:109E8000D5F89C209DF818300BF1FF3B62F30403DA
:109E90008DF81830D5F8A0309DF818205B0863F3D2
:109EA00047128DF81820D6E900321344049323F0AA
:109EB0001F035B44A3EB0A03013023F01F0304A933
:109EC000C0B20793FFF736FFBEE700BF00ED00E02A
:109ED000500D01002D0D0100700301000522044BFF
:109EE000C3F89420BFF34F8FBFF36F8F704700BF4D
:109EF00000ED00E0BFF35F8F0022024BC3F8942017
:109F0000704700BF00ED00E010B5034C2278FFF76A
:109F10002DFF207010BD00BF8FCD00202DE9F74F21
:109F2000294D8A4606464FF00008AB46274FD045DC
:109F30001BDAD6F80490B9F1000F3FD0316808461B
:109F4000019104F0D4FF0199044609EB01000138A6
:109F500004F0CDFF84424FF014021D4B08D002FBE9
:109F600008F36FF015024BF8032003B0BDE8F08F43
:109F700014F1160F2C60F8D01978A142F5DD02FB20
:109F800008B0C7F89840C7F89840D7F89C4000F14F
:109F90000801007B64F304000871D7F8A0000C7975
:109FA000400860F347140C71D7F89C1021F01F0192
:109FB0006960D7F8A01021F01F01296108F101089C
:109FC00014350C36B3E700BFF8C7002000ED00E001
:109FD0008FCD002038B50E4D2C68102C15D80020E0
:109FE000FFF788FF0B4B0C4AC3F8C020844205D111
:109FF0000A4B00201C70FFF771FF38BD696801EB48
:10A000000011FFF77DFE0130F0E74FF0FF30F4E77D
:10A010003804010000ED00E0AAFF44008FCD0020CD
:10A0200008B5024B1B689847002008BD0CC80020EB
:10A03000034B044A1860937843F00203937070470F
:10A040000CC8002088C50020F0B587B007460E4632
:10A0500014460021102268461D4605F0B1FF022378
:10A060008DF80230054B2A4621466846CDE9047634
:10A07000019304F04BF807B0F0BD00BF53EF0000B0
:10A0800008B50649064821F00701C1F1005202F562
:10A09000802204F050FD002008BD00BFF3DC00204A
:10A0A000E0DC0020084B70B5C31A0D4607499B1031
:10A0B000044659434022064804F072FF2B460146ED
:10A0C0002046BDE87040184724C80020B76DDBB6B5
:10A0D0006C000100402373B50B4C0093041B0B462E
:10A0E0000D460A49A41061430646094A094804F08E
:10A0F00083FF011E05DA30462B4602B0BDE87040F2
:10A10000184702B070BD00BF24C80020B76DDBB691
:10A1100063F000006C00010070B5002201210446CC
:10A120000520FFF729F90F4801F09CFB0E4B9842E0
:10A1300015D101F0A7FB26690C49304604F0A3FDB8
:10A1400000280BDB012535642469084904F11C0053
:10A1500004F099FD002801DB0020E56470BD6FF07C
:10A160000400FBE7A5A100000000AD0B60040100A6
:10A1700001460C2300224B4370B50848C4184033F5
:10A180001844D4E90E56A26304F0F7FE2DB132460E
:10A190002B46BDE870400248184770BD24C8002017
:10A1A0006C00010010B1012804D07047034B1B6CF8
:10A1B0005B0701D1FFF7DCBF704700BF24C8002058
:10A1C00008B54FF02003EFF3118183F31288BFF33A
:10A1D0006F8F114A136843F002001060DA0708D449
:10A1E00081F31188BFF36F8FBDE80840012001F0B3
:10A1F00059BB0A4BD3F80C24D3F80C34DB07EFD54A
:10A20000074804F0BAFE81F31188BFF36F8FBDE8F1
:10A2100008400020FFF7ACBF74C800200050004089
:10A2200064C800201FB500220123CDE902236B463C
:10A23000084ACDF800D0CDF804D004F00BFF002878
:10A2400005DB4FF480420023684603F019FA05B09D
:10A250005DF804FB81F0000010B54FF02003EFF330
:10A26000118483F31288BFF36F8F074A136823F0BA
:10A270000201DB07116002D4012005F0DAF884F353
:10A280001188BFF36F8F10BD74C800202DE9F04115
:10A29000012207463549D1E8EF3FC1E8E02F002809
:10A2A000F9D133B9324933484B60CB608A6004F04E
:10A2B000FDFC7B1E012B28D8012F06D12E4BD3F895
:10A2C0001C3403F00303022B1FD005F0CAFC054623
:10A2D000E8B92A4B1B78D3B102220646264BC3F8B5
:10A2E0000823254CDFF89880D4F81824D4F81834C3
:10A2F000D20316D503F00303022B01D0012F10D196
:10A3000075B386F31188BFF36F8FBDE8F0814FF00E
:10A310002003EFF3118683F31288BFF36F8F0125BB
:10A32000DFE7C5B13046FEF7AFFFD4F81835DBB232
:10A33000012BD9D1D4F80421002AD5D00022C4F8A9
:10A340000421D4F804210222C4F818252022C8F8D8
:10A350008021A360C8E70021212003F07BFCE4E713
:10A360000222054BC3F80423CFE700BF20C800201A
:10A3700010C8002040C80020005000409ECD0020A2
:10A3800000E100E008B5074805F0DAFB38B10648FF
:10A39000FFF74EFE0448FEF7E3FA002008BD6FF019
:10A3A0001200FBE7A8000100ADA300000A2838B5A1
:10A3B0000446074D04D1AB680D2128465B689847D9
:10A3C000AB6803485B68E1B29847204638BD00BFE0
:10A3D000A800010030B5406801F01F04057BB2F50C
:10A3E000001F85B044EA451405D1204601F042FD26
:10A3F000002005B030BD0025B2F5800FCDE9025533
:10A4000014D1B3F1007F0CBF042305238DF808306D
:10A4100000232046194602AA01F05CFB204B98421B
:10A4200038D10121204601F0DBFCE1E7B3F1C06F38
:10A4300025D0B3F1007F14BF012302238DF808302B
:10A44000836823FA01F111F00101E1D1B2F1A07F9B
:10A45000DED104F01F03620903F180031DD1114A0C
:10A4600052F82330DB07D3D40DF1070529462046E7
:10A4700001F062FC0C4B984203D00395C8E703231C
:10A48000DCE7284601F0A6FC054B9842F5D06FF0BA
:10A490000B00AEE76FF01500ABE751F82330FFDE9D
:10A4A0000000AD0B002584400400AD0B10B501F099
:10A4B00081FC044668B901F055FC084B98420AD16A
:10A4C0002146074801F032FC224605213120FEF7E3
:10A4D00053FF002010BD6FF00400FBE70000AD0B40
:10A4E000E5A40000430970B507D10B4B596821B1B1
:10A4F00001250C68094E854001B970BD8A682A4063
:10A5000002D030464B6898471CB1236821461C4650
:10A51000F2E72346FAE700BF78C800208000010078
:10A520002DE9FF41476801F01F053B7B144645EAD2
:10A5300043150E4628460DF1070101F0FDFB14F40A
:10A54000403F80460DD1284601F0BAFC3C4B98456F
:10A5500003D19DF8070001F037FC002004B0BDE8EE
:10A56000F08100232846194602AACDE9023301F002
:10A57000B1FA334B984214D1804503D19DF80700BE
:10A5800001F022FCA3034CD540F206332340B3F57F
:10A59000837F1AD00DD8062B18D005D8B3B1022B63
:10A5A00032D06FF01500D9E7B3F5807FF9D10123E0
:10A5B0000CE040F20222934228D0B3F5407F27D02E
:10A5C000B3F5007FEDD1022300E007238DF80830BA
:10A5D00084F48033C3F30043E0068DF809304CBFA8
:10A5E0000323C4F3401321038DF80A3012D501234D
:10A5F0007A68B34093600022284602A901F01EFB4E
:10A600000F4B9842A9D0CCE70423DFE70523DDE711
:10A610000323DBE7620341BF01237A68B340D360C1
:10A62000E9E7E3064FF000034CBF0324C4F34014F2
:10A630001A46284602A98DF8084001F04BFADFE7D8
:10A640000000AD0B2DE9F04346680546336885B040
:10A6500093B9026832490392324A1846CDE9013271
:10A660000093012204F095FD6FF012043368F3B9F2
:10A67000204605B0BDE8F0830024F7E72A4B03909D
:10A680000293002301221846CDE90033244904F047
:10A6900080FDEDE72A6822490392244A0090CDE923
:10A6A0000102012204F075FD6FF01204E0E7002CB6
:10A6B000FAD1A0460127746854F8380004EBC809A1
:10A6C00005F03EFA03460028E4D054F8380099F823
:10A6D0000410B9F80630D0F810C0DA07DCF80040F2
:10A6E00054BF43F4B01383F4D01323F4801207FA59
:10A6F00001FEDB07D0F808904CBF44EA0E0424EAC0
:10A700000E04CCF80040D9F80030984704460028E1
:10A71000B4D1336808F101084345CCD8A8E700BF9D
:10A7200040030100BB0D0100E60D0100050E010014
:10A73000F0B5456885B02B682BBB026818460392BC
:10A74000124A1349CDE901320122009304F07DFD44
:10A750006FF0120005B0F0BD6F682601B85905F022
:10A76000EFF9034648B9BA590949126800900392B3
:10A77000084ACDE901020122E8E701342B689C4236
:10A78000EADB0020E6E70024F8E700BFBB0D01008C
:10A7900048030100280E01002DE9F041534D544EAD
:10A7A00000EB8101814202D10020BDE8F081046804
:10A7B00004F07F03C4F343277F2B4FEA144408BF00
:10A7C0004FF0FF33192C00F28280DFE804F00D1304
:10A7D000191C1F251C80808080365F8080808080CF
:10A7E0008080808062777A7DC2F80C355C1C5AD1FB
:10A7F0000430D7E7C2F814355C1CF9D000245BE0C4
:10A80000C2F80835F2E7C2F81035F5E75C1CC2F86B
:10A810000835EDD0002404E05C1CC2F80C35E7D00C
:10A8200001245FEA531C55D14FF0010EDFF8BCC084
:10A830000EFA03F8CCF80C8008E0C2F80835002FB7
:10A84000DAD15C1CD4D000240627A646D0F80080BC
:10A8500008F4005CBCF1000F1CBF01244FF0000E97
:10A8600003F01F0C5B093BD105EB8C0CDCF80032CC
:10A87000C8F3C118334043EA880343EA072343EA95
:10A880000E0343EA4403CCF80032B1E7C2F80C35BA
:10A89000D5E7C2F86035B3F1FF3F0468A8D0C4F330
:10A8A0008034002CBCD05C0917D10124DFF83CC0F7
:10A8B00004FA03FECCF808E0A646C7E7C2F8643500
:10A8C000E9E7C2F86835E6E7C2F86C35E3E76FF010
:10A8D00085006AE70023DB60FFDE00239B60FBE767
:10A8E00000230CF1800C53F82C30F5E70025844050
:10A8F000F0F8FCFF00210248C2E900010020704787
:10A900000024F400F0B5456887B0AF6B06690446D3
:10A910000021384605AA04F0A8FC00284ADB059B64
:10A920003A6819791868FFF737FF002842DB0022E0
:10A930004FF0010E11462F68DFF888C002F5AC73A6
:10A9400057F8230000280BDB430937D1DCF804302B
:10A95000C34013F0010318BF0EFA02F30B43D9B240
:10A960000132042AEAD100230120023600FA03F260
:10A970000A420CBF012200220133D203042B26F825
:10A98000022FF3D1002328461A4605F1080101F0F1
:10A99000A3FC0D4B98420FD02368012203930B4B6D
:10A9A0000B49029300231846CDE9003304F070FCF4
:10A9B0006FF00F0007B0F0BD0020FBE700235B68DD
:10A9C000FFDE00BF002584400000AD0B510E0100EA
:10A9D000880301002DE9F0430E4689B0BDF84080A0
:10A9E000032E11461C464768056908F001080BD97B
:10A9F0005B4B03960293002301221846CDE90033F6
:10AA0000584904F045FC1AE0BB7F012B04BF6408E1
:10AA10005108002C7AD0A1427BD92B68994222D0D0
:10AA200001222B7B02FA06F083430DD04E4B4D4999
:10AA3000029300231846CDE9003304F029FC6FF09F
:10AA4000150009B0BDE8F0830A46B2F5004F55D2B3
:10AA500029606B73386897F81EC0C0F80C35C0F8D1
:10AA600004C5C0F808254FF001096B7B24FA03F3F5
:10AA70009BB288F0010043EAC03305EB46029380A5
:10AA80006B7B0822CDE90613384BCDE904640393B0
:10AA9000374B344902930023CDE900321846042293
:10AAA00004F0F6FBB9F1000F3CD13B6806F5AC723F
:10AAB00053F82230002B0FDBB8F1000F46D0B4FA68
:10AAC00084F4640903F01F0101222A485B092CBBAE
:10AAD000002B3FD18A40C2600124297B04FA06F68C
:10AAE00021EA0601297319B3AB7B3BBB002301228A
:10AAF000384607F1280101F01BFC1DE00133082B4B
:10AB00004FEA5202A1D11C4B039173E7A1462346A1
:10AB1000AFE74FF0000947F6FF73AAE7E3B98A40B1
:10AB20008260D9E701222B7BB24013432B73DBE712
:10AB3000384601F03BFCAC73002082E70023AB7386
:10AB4000384604F02EFD0028FAD0CFE7003C18BFAD
:10AB50000124B7E7E460FFDE00239B60FBE700BF52
:10AB6000710E010088030100860E0100F90E01003C
:10AB7000C50E0100002584409B0E01007FB50BAB84
:10AB800005930393054B0122029300231846CDE958
:10AB90000033FEF729F907B05DF804FB200F010030
:10ABA000F0B54B79012B26D0032B21D110258B79C1
:10ABB000032B1DD1CE790EB1012E19D10A7912B114
:10ABC000022A15D10E220B684468B3F5164F276888
:10ABD00067D02DD8B3F5165F66D016D8B3F5966F4B
:10ABE00064D00AD8B3F5967F63D0B3F5167F63D0EF
:10ABF0006FF0850054E00025D9E7B3F5166F5ED0FD
:10AC0000B3F5965FF4D1384B3CE0B3F5E14F59D042
:10AC100007D8B3F5615F57D0B3F5964FE8D1334B02
:10AC200030E047F61224A342E2D14FF4000329E0BA
:10AC3000B3F5613F4AD013D8B3F5963F49D009D850
:10AC40004DF6C024A34246D0B3F5614FD0D14FF4A6
:10AC50006B0317E0B3F5E13FCAD14FF0EB7311E09E
:10AC6000B3F5612F3AD008D8214CA34239D0B3F5BF
:10AC7000E12FBDD14FF0E86304E01E4CA342B7D1F1
:10AC80004FF080530469C7F82435436835431B6887
:10AC90002A43C3F86C25231D03C983E80300002061
:10ACA000F0BD4FF41D03EDE7134BEBE74FF49E238C
:10ACB000E8E74FF4A033E5E74FF41C33E2E74FF445
:10ACC0001D23DFE70D4BDDE70D4BDBE74FF06C732A
:10ACD000D8E70C4BD6E74FF46503D3E74FF070632A
:10ACE000D0E74FF08063CDE700B0130000A04E0026
:10ACF00090D0030040420F000050270000C07500B4
:10AD000000F03A0000903A012DE9F043804687B008
:10AD1000002201210820FEF72FFB0820FEF710FB80
:10AD20000021D8F80470D8F810603D6805AAC5F86D
:10AD30000015C6F80080D7F80C90484604F095FA44
:10AD4000041E24DB059BD9F8002019791868FFF749
:10AD500023FD041E1BDB4046311DFFF721FF044687
:10AD6000A8B97B68990722D506F1180000F00CFEFF
:10AD7000234B98420FD0234B2046CDE9014300944A
:10AD8000234601222049FFF7F9FE6FF00404204614
:10AD900007B0BDE8F083307E05F10C0205F5907137
:10ADA00004F040FB0120337E984000F0FDFC0823B6
:10ADB000C5F800353B7A53B9C5F81031D5F81031D4
:10ADC0007369C5F834350123C5F838352B607B68C5
:10ADD0009A075CBF4FF48073C5F804337B68DB06C9
:10ADE00044BF4FF48003C5F804333369C5F84435D4
:10ADF0000023C5F848350123AB60EB60C7E700BF0F
:10AE00000000AD0B200F010098030100F8B50446C7
:10AE10000D46076904F025FFB0B92E4B1B789BB196
:10AE20006426606804F067FA00BB012004F0F8FAB9
:10AE3000013EF6D10021212002F00CFFF0E786F35D
:10AE40001188BFF36F8FF5E74FF02003EFF3118602
:10AE500083F31288BFF36F8F6068314604F04BFABA
:10AE600090B986F31188BFF36F8FEDE74FF02003A1
:10AE7000EFF3118683F31288BFF36F8F606831465A
:10AE800004F039FA0028DAD03B691D70626838692D
:10AE90001368C3F844050120C3F848050020C3F82F
:10AEA0002001D3F82051C3F858015268D3F8580153
:10AEB000D20608D5082062681268C2F800054FF46F
:10AEC0008002C3F8042301229A6081F31188BFF342
:10AED0006F8FF8BD9ECD00200123834070B5DC4309
:10AEE0000B4AD2E8EF1F01EA0405C2E8E65F002E34
:10AEF000F7D14FF4803282400648C0F80823BFF3F0
:10AF00005F8FBFF36F8F0B4214BF0120002070BD15
:10AF100098C800200050014070B40E4922F07F46CE
:10AF2000D1E90034D01AC31844F10004C1E9003457
:10AF3000A6F50013B3F5400F09D2074B1B681A0A98
:10AF40001B069C19054B42F10005C3E9004570BC86
:10AF500002F0D6BF98C600209CC80020A0C60020E2
:10AF6000D9B101230D4A8340D2E8EFCF4CEA030C5C
:10AF7000C2E8E1CF0029F7D14FF48033084A83407B
:10AF8000C2F80433074BD3E8AF3FC340DB0742BFEF
:10AF90004FF40012044BC3F80021704798C80020FA
:10AFA0000050014094C8002000E100E00D4B1868FB
:10AFB000010A0006BFF35F8F0B4BD3F80435181856
:10AFC00041F10001B3F5801F0AD2084BD3E90023F9
:10AFD000904271EB030303D210F1807041F1000144
:10AFE000704700BF9CC8002000500140A0C6002050
:10AFF0002DE9F04F85B016461F4604469DF840A047
:10B00000FFF76AFF0190FFF7D1FFB04271EB070332
:10B0100052D23B4B301A67EB0101984271F10001AB
:10B020004DD2384B03EB0413D3E902239F4208BFF0
:10B03000964258D04FF48038334908FA04F8204635
:10B0400026F07F4BC1F8488304F09EF94FF00309C6
:10B05000584604F15005AD00ADB205F1804504F548
:10B06000A87305F5A8350293029A20F07F4341F8B2
:10B070002230C1F84483D1F80435244AC01A033879
:10B0800020F07F4090422ED9286868B1D1F804356D
:10B09000A3EB0B0020F07F40B0F5000F039322D903
:10B0A000204604F071F9039BBAF1000F07D109EBB8
:10B0B000030009F10109D7E7BAF1000F09D06FF0D9
:10B0C000150520460199FFF74BFF284605B0BDE85E
:10B0D000F08F01230E4AA340D2E8EF0F1843C2E8D5
:10B0E000E10F0029F8D107490E982301C8500F9BA2
:10B0F00001EB04120025C2E902675360E1E700BFDB
:10B100000100800088C6002000500140FDFF7F0044
:10B1100094C800207FB500254FF0FF304FF0FF317D
:10B12000194C1A4B0226C4F80833C4F84833184B9C
:10B13000C4F80855C3E902014FF480334FF40012FC
:10B14000C4F80433134B0121C4F804631520C3F879
:10B1500080212A46FEF710F91520FEF7F1F80123A9
:10B160000D4AA360236013600C4B0D4A00932846E0
:10B170000023CDE90155FFF73BFF3046FFF786F886
:10B18000284604B070BD00BF0050014003000F000E
:10B1900088C6002000E100E098C8002019AF000038
:10B1A000FFFF7F002DE9F7432E4BD3F804239007D0
:10B1B0000BD5D3F8042142B10022C3F804212A4A56
:10B1C000D3F80431136801331360264AD2F80433EC
:10B1D000D90327D5254BD3E8EF1F21F00100C3E8A1
:10B1E000E40F002CF7D1CB0702D4D2F84031CBB119
:10B1F00000251C4CC4F84051D4F84031FFF7D6FE6E
:10B200004FF02003EFF3118283F31288BFF36F8FA7
:10B21000174BD3E90267B042B94106D282F31188D5
:10B22000BFF36F8F03B0BDE8F0834FF0FF38D3E971
:10B2300000104FF0FF391D60C3E902894FF48033DD
:10B24000C4F84833C4F84051D4F8403182F311882F
:10B25000BFF36F8F0029E5D0009032463B46284669
:10B260008847DFE7005001409CC8002094C80020B8
:10B2700088C600201FB5431C22D0012822DD124AB7
:10B28000124B9042D4BF04461C46FFF78FFE104B72
:10B290000E49D3E90023801AB0F5000F28BF00241F
:10B2A00004448C4228BF0C4600200A49A218CDE96C
:10B2B0000100009143F10003FFF79AFE04B010BDB6
:10B2C000024CE2E70124E0E7FEFF7F00FFFF7F0082
:10B2D00098C6002019AF000008B5FFF767FE024BC3
:10B2E0001B68C01A08BD00BF98C60020F0B50F4B00
:10B2F00001461A680E4B0B25002618461F46B84219
:10B3000001D3013D04D11846013A19605A60F0BDDD
:10B3100004688C42FBD03CB14468141BA642BCBFFD
:10B32000034626460830EAE70346ECE710C900204A
:10B330001CC900200020054BC3E90000044BD3E8E2
:10B34000EF2FC3E8E10F0029F9D1704714C900209D
:10B3500010C900202DE9F04F87B005460E4604F0D5
:10B36000E8FB20B96FF06D0007B0BDE8F08F04F086
:10B3700084FD33680446002B0F4604D102F0E8FB3D
:10B380006FF00A00F0E7BCBF4FF0FF3333600122DB
:10B39000002101A804F081FCE84605954FF0200348
:10B3A000EFF3118B83F31288BFF36F8F04F018FE55
:10B3B000DFF828A1DFF828915AF80000FFF796FF80
:10B3C000D9F8003042689A426FD10023454D00936E
:10B3D0006B68002B70D1C5E900888BF31188BFF32F
:10B3E0006F8F33685A1C6CD04FF4004E40F2E73038
:10B3F000002123EAE37C4FF47A720023CCFB0E0198
:10B40000FCF7A2FE02460B4601A802F039F94FF004
:10B410002003EFF3118B83F31288BFF36F8F0022A9
:10B420002B685BB1434556D10099002A4DD16A681B
:10B4300029609A4200D169600023009304F0D0FD96
:10B440005AF80000FFF752FFD9F8003043608BF341
:10B450001188BFF36F8F04F06CFB002882D0356831
:10B460006B1C27D004F009FD4FF47A7EA0FB0E324E
:10B470000EFB0121A4FB0E420EFB0722DB0BE40BAB
:10B4800043EA414344EA42441B1B4FEAD1314FEAAD
:10B49000E57C61EBD231ED1A6CEB010CBCF1000FD5
:10B4A000B8BF002535602DB96AE743608BF311887A
:10B4B000BFF36F8F002057E7C3F80080C5F8048002
:10B4C0008BE74FF0FF3213469EE71160696899429F
:10B4D00008BF6A60B0E71A461B68A2E708000000D0
:10B4E00010C9002014C90020024600B504F078FD00
:10B4F000014B1A505DF804FB0C00000070B40468A6
:10B50000094B2CB19C4203D303F17005AC4206D326
:10B51000064D2C78661C03EB04132E700360006844
:10B5200070BC04F0BABB00BFA0C8002092CD0020C0
:10B5300038B505460A4BD3E8EF1F0131C3E8E21FD7
:10B54000002AF8D1074B1C6804B938BD6369AB42C7
:10B5500000D015B9201D02F06FF82468F4E700BF91
:10B5600010C9002014C90020014600220023014810
:10B5700004F050BB6CC900200146014804F054BBE4
:10B580006CC90020014600220023014804F042BBA0
:10B5900080C900200146014804F046BB80C9002054
:10B5A0007FB50BAB05930393054B01220293002358
:10B5B0001846CDE90033FDF717FC07B05DF804FB32
:10B5C000630F01001FB50024FDF79EFB064B2046CC
:10B5D000029301222346CDE900440449FFF7E0FF2E
:10B5E0002046FEF711FB00BF630F01003803010086
:10B5F0001FB50446F8B91149114801F07DFA50B160
:10B60000104B0390CDE901430122234620460E4909
:10B61000009403F0EFFE0D49094801F06DFA50B1B6
:10B620000B4B03900293002301221846CDE900330F
:10B63000054903F0DFFE04B010BD00BF800F01001C
:10B640006E0E01009F0F010068030100CC0F010086
:10B65000E40F01002DE9F0411F46154B044693F815
:10B6600000800D461646A2B0B8F1000F15D168460D
:10B6700003F03BFC3A4631462846289BA047044647
:10B68000684603F033FCB8F1000F02D0094801F01E
:10B6900097FF204622B0BDE8F0814FF0FF324FF017
:10B6A000FF33044801F012FF0028E0D01F24F0E728
:10B6B0009ECD002070C6002070B5302692B006AB3B
:10B6C00005460C4632460021184604F079FCCDE9C7
:10B6D0000454CDE9020654B1012304AA00920021CA
:10B6E0000448019302AA00F007F812B070BD20468A
:10B6F000FBE700BF0001004030B401F50045B5F59F
:10B70000803F039C0DD243EA0405FF2D09D844EA8B
:10B710000324134644EA0142014630BC0348FFF7C4
:10B7200099BF6FF0800030BC704700BF217C0000E3
:10B7300030B50468ACB1B4FA84F30122C3F11F033D
:10B74000DBB29A4024EA0202D0E8EF5FA54204D1BE
:10B75000C0E8EC2FBCF1000FF6D1EAD102480B7023
:10B7600030BD0248FCE700BF0000AD0B0200AD0B8E
:10B7700010B50368CB40DB0710D401238B4002686F
:10B7800043EA0201D0E8EF4F944204D1C0E8EC1F35
:10B79000BCF1000FF6D1F2D1014810BD0148FCE721
:10B7A0000000AD0B0400AD0B014BC3F8040570475E
:10B7B00000700140F7B5044618B1012822D003B04B
:10B7C000F0BD0222264B0646C3F80823C3F8040145
:10B7D000D3F804210122DA60012342F21075204FD0
:10B7E0008DF80730D4B1012CE9D1D7F80C3403F42B
:10B7F000803386BB002BE2D0012003F011FE013D17
:10B80000F3D1DCE70022164B0DF10706C3F808035D
:10B81000C3F80021D3F800215860DDE7D7F81834C9
:10B8200003F480333EB9002BC9D0012003F0F8FDAA
:10B83000013DF3D1C3E7D7F8182402F003023270B8
:10B84000002BBCD09DF807000128B8D103F0E8FD1B
:10B85000013DC7D1B3E7D7F80C2402F00102EEE7AF
:10B8600000500040044B1A7922B9012218601A7165
:10B87000024870470248704794C900200000AD0B91
:10B880000C00AD0B08B50520FDF768FD10B90520CB
:10B89000FDF756FD0122024BC3F8182508BD00BF75
:10B8A0000050004008B510B101282ED008BD1C4A38
:10B8B000D2F81814D2F81834C90317D503F00303CB
:10B8C000022B05D0012B02D00020FFF773FF0123CC
:10B8D000134AC2F818350023C2F80431D2F80431F3
:10B8E0000223C2F8043301239360DFE7D2F8143453
:10B8F000DB07ECD5D2F81C3403F00303013B012B2A
:10B90000E2D80223C2F80433D0E70022044BC3F884
:10B910000021D3F80021C3F804031860C6E700BF74
:10B920000050004010B5164BD3F8002152B1002052
:10B93000C3F80001D3F800210122C3F80823114BFA
:10B940001B6898470E4BD3F8042182B10022C3F83C
:10B950000421D3F80421D3F81824D3F818240221A1
:10B9600002F00302012A03D1C3F818159A6010BD32
:10B97000C3F80813034B0120BDE810401B681847AB
:10B980000050004094C9002001460148FFF7D0BE96
:10B99000B4C50020036803F01F025B09026002487F
:10B9A00018BF0020704700BF00258440034BC0B281
:10B9B000083033F81000C0F340107047B8C50020BD
:10B9C000034BC0B2083033F81000C0F3400070479A
:10B9D000B8C50020034BC0B2083033F81000400B4C
:10B9E000704700BFB8C5002070B50D4C00F10803CA
:10B9F00034F813300546DA050E4607D5C3F3432362
:10BA000004EBC302526854F833309847A3682BB153
:10BA100031462846E268BDE87040184770BD00BF57
:10BA2000B8C5002010B4124AC0B2083032F8103045
:10BA3000D9051BD5C3F3432123F4F85322F8103062
:10BA4000002002F10E0434F8023F13F4807F03D08B
:10BA5000C3F34323994209D001302028F3D10023B6
:10BA600042F83130034810BCFFF782BE10BC70476B
:10BA7000B8C500200CC6002001460020F0B5012604
:10BA80000746104B104D114C5A19920806FA02F253
:10BA9000114208D0D3F800C0BCF1000F03D01F60E2
:10BAA000D3F800C010430433A342EDD1084BD3F8C0
:10BAB0007C2132B10022C3F87C21D3F87C3140F0E4
:10BAC0000040F0BD0011034000EFFCBF2011034017
:10BAD000001003402DE9FF41044690461D4601B386
:10BAE000FFF76EFF18B12046FFF760FF28BB002369
:10BAF0000DF10F02CDE900338DF80E308DF80F30C7
:10BB000020460B460DF10E0103F095FC4749E3B2C8
:10BB1000083331F8132022F0020242F0010221F82A
:10BB20001320B8F1000F32D0204698F80060D8F802
:10BB30000420FFF745FF10B1F2B13D4829E03B4F2B
:10BB4000E0B2083037F8101021F02001C904C90C08
:10BB500027F8101082B1032EEFD8D8F8043093F8EC
:10BB600000C06246920002F1804202F544329EB962
:10BB7000C2F81065C2F810652C49E3B2083331F8F9
:10BB8000132022F01C0242EA860221F813201DBB7A
:10BB9000284804B0BDE8F081D2F8103541EA4C31B4
:10BBA00023F00303C2F81035D2F8103541F020011C
:10BBB00023F4473323F44073C2F81035D2F810E56C
:10BBC000230203F4F85343EA0E0343EA0643C2F8A0
:10BBD000103527F81010CFE72046D5E90067FFF7AA
:10BBE00021FF002ED4D0114DD5E90023964201D17A
:10BBF0009F4219D010480DF10F01FFF799FD0D4B31
:10BC00009842C6D19DF80F20E0B205EBC203083080
:10BC10005F6035F8103045F8326043EA422343F460
:10BC2000807325F81030B3E70022EDE7B8C5002097
:10BC30000400AD0B0000AD0B0CC60020F0B50446AF
:10BC4000164685B029B3FFF7BBFE20B92046FFF7A3
:10BC5000ADFE002862D1324FE5B2083537F8153015
:10BC600013F01C0F02D04B78012B57D001238DF815
:10BC70000F3000234A1CCDE9001320468B1C0DF128
:10BC80000F0103F0D8FB37F8153043F0030327F812
:10BC9000153016B9234805B0F0BD2046FFF790FED9
:10BCA00000283BD096F800C0002361461C4FE5B247
:10BCB000083537F81500890020F0200001F1804197
:10BCC000C00401F54431C00CC1F8103527F8150047
:10BCD000C1F810357278002ADCD0D1F81035B6786A
:10BCE00023F4981323F4F853C1F8103512042302F7
:10BCF000D1F810E502F4403203F4F853134332054F
:10BD000043EA0E0302F4801240EA4C30134340F041
:10BD10002000C1F8103527F81500BBE70248BAE744
:10BD2000B8C500200000AD0B0400AD0B014BC3E90A
:10BD300002017047B8C5002008B50246FFF736FE7D
:10BD400040B1054BD2B2083233F8123003485B0BD6
:10BD50000B7008BD0248FCE7B8C500200000AD0B21
:10BD60000400AD0B70B50F4C94F85860BEB90E4D81
:10BD70004022314604F1100004F022F93120C5F8C8
:10BD80007C61D5F87C31FDF7DBFA4FF00043C5F854
:10BD900004330123054884F85830636570BD0448B6
:10BDA000FCE700BFB8C50020001003400000AD0B49
:10BDB0000500AD0B034B93F85800003818BF012065
:10BDC000704700BFB8C5002001460148FFF7D0BC4E
:10BDD00008C6002001460148FFF7AABC08C600209B
:10BDE00037B50446FFF7E2FDF0B12046FFF7E8FD66
:10BDF0000546C8B92046FFF7EDFD1B4A03B29B007C
:10BE0000D550D25803F1804303F54433D3F81025BD
:10BE100042F00102C3F8102521B10123134A8340E7
:10BE2000C2F8043303B030BD114AE3B2083332F82C
:10BE30001330C3F38203042B11D0052B11D001A8BA
:10BE40000194FFF7A7FD019B0169D94001F00101B1
:10BE50000231204603B0BDE8304003F035BB03217A
:10BE6000F7E70221F5E700BF00110340001003408F
:10BE7000B8C5002008B50246FFF798FDC0B11046CE
:10BE8000FFF79EFDA0B91046FFF7A4FD01230B4A62
:10BE90008340C2F8083303B29B0003F1804303F5EB
:10BEA0004433D3F8102522F00302C3F8102508BD4F
:10BEB0000021BDE80840104603F006BB0010034017
:10BEC00073B51B4EC5B2083536F815300446DB078E
:10BED0002BD5FFF7CFFF2046FFF768FD68B120465E
:10BEE000FFF778FD002203B29B0003F1804303F5C6
:10BEF0004433C3F81025C3F810252046FFF792FD00
:10BF0000002301A826F815300194FFF743FD019B9B
:10BF100000EB8300D0F80022064B134043F00203ED
:10BF2000C0F80032044802B070BD0448FBE700BF0F
:10BF3000B8C50020F0F8FCFF0000AD0B0400AD0B0D
:10BF40002DE9F74F4E4BD3F80403C0B240F0004048
:10BF5000FFF792FD051E14DA4A4FDFF82C913B6A79
:10BF600000933B624FF00108009C84B94FF0004001
:10BF7000FFF782FD3B6A00933B62002BF2D125F074
:10BF800000450124002D63D103B0BDE8F08F94FA81
:10BF9000A4F4B4FA84F4E00804F1080339F813A017
:10BFA00004F007021DF8003008FA02F223EA020347
:10BFB0000DF8003001A80194FFF7ECFC019B4FEA5B
:10BFC0009A01803350F82360CAF3820B4B07DA469C
:10BFD000C6F3014621D520465946FFF705FD01A8C5
:10BFE0000194FFF7D7FC019BF6B2803350F8233061
:10BFF000C3F301439E4207D10021204603F064FAB7
:10C000003146204603F060FA01A80194FFF7C2FC14
:10C01000019B08FA03F30362A6E7022E0CD1032169
:10C02000204603F051FA0BF00503012BECD15146E9
:10C030002046FFF7D9FCE7E70221204603F044FA47
:10C04000BBF1030FF3D0032EDED1BBF1020FEDE7FE
:10C0500095FAA5F3B3FA83F304FA03F29B0003F114
:10C06000804303F54433D3F81005D3F81015C0F31B
:10C070000420C1F3014125EA0205FFF7B5FC81E781
:10C080000010034000258440B8C5002070B5084C5E
:10C090000E462379154643B92A20FDF751F90123AD
:10C0A000044823712660A56070BD0348FCE700BF0B
:10C0B0009CC900200000AD0B0C00AD0B002330B577
:10C0C0000D4A50F8234003F5A2710133082B42F8C2
:10C0D0002140F6D10023084A00F11C0103F5B27497
:10C0E00051F8045F0133082B42F82450F6D1036C59
:10C0F000C2F8043330BD00BF00A0024000234FF05F
:10C10000FF31134AC2F81035C2F81435C2F8183599
:10C11000C2F81C35C2F82035C2F82435C2F82835DB
:10C12000C2F82C35C2F89035C2F89435C2F898356B
:10C13000C2F89C35C2F8A035C2F8A435C2F8A835BB
:10C14000C2F8AC35C2F80813024A1371704700BF39
:10C1500000A002409CC900200123024A8340C2F88B
:10C160000433704700A002400123024A8340C2F812
:10C170000833704700A00240F8B5012600270B4B9A
:10C180000B4DD3F80C4304B9F8BD94FAA4F0B0FAFF
:10C1900080F006FA00F324EA0304064B82009F5065
:10C1A0002B68002BEFD0A9689847ECE700A002406D
:10C1B0009CC9002000A102400C2370B505790A4CEF
:10C1C0006B43E618E35833B90221006803F0BFF966
:10C1D00008B1012333720C2303FB0544207A023893
:10C1E00018BF012070BD00BFA8C900202DE9F04391
:10C1F0000B7FA3B34C7F0F8B91F815C091F816E01D
:10C200008A7E91F81B8003685CB9D1E90065D1E9A9
:10C210000241C3F86065C3F86455C3F86845C3F8C4
:10C220006C1542EA0822C3F80CC5C3F804E5C3F84C
:10C230000875C3F8102500230068C0F81031D0F845
:10C240001021C0F80831D0F80821C0F80C31D0F81E
:10C250000C31BDE8F04340F30730FDF771B801271A
:10C260001B4EDFF870E00C1F01F1100501F10C0C02
:10C2700054F8043F5A1C1BD095F8008003F01F02AD
:10C280004FEA5319B8F1000F17D0B9F1000F02D0DF
:10C2900000239B60FFDE07FA02F2B26006EB830325
:10C2A000D3F8002202EA0E0242F00302C3F8002291
:10C2B000644505F10105DBD19CE7B9F1000F03D11D
:10C2C00007FA02F2F260E9E7C8F80C80E2E700BF83
:10C2D00000258440F0F8FCFF2DE9F0410C2790F890
:10C2E0000480104C07FB08F704EB070C9CF808E0EF
:10C2F0000546BEF1000F13D1E251CCF8043021B154
:10C300000B7F8CF80A30FFF771FF01232A6806487B
:10C31000C2F800350C2202FB08442372BDE8F0810C
:10C320000248FBE7A8C900200000AD0B0500AD0BDB
:10C3300070B40C461D4601791B4B01EB4101266888
:10C3400003EB81010368C3F82065A688C3F8246560
:10C35000A668C3F82865E668C3F82C6503682668F4
:10C36000C3F84065A688C3F84465A668C3F8486565
:10C37000E468C3F84C45046802F0010303EB520281
:10C38000C4F81425EA070DD415F0020203D0002BDF
:10C3900014BF082204220468C4F80022EAB270BC68
:10C3A00003F0A1B81022F6E7A8C90020002238B592
:10C3B00003680579C3F800220122036804465A6025
:10C3C00051B12046FFF7F8FE0028FAD00C22054BA9
:10C3D00002FB053301221A722046BDE83840FFF700
:10C3E000EBBE00BFA8C9002070B503680446033B3C
:10C3F000DBB2052B03D8094A52F823502DB9A068A7
:10C4000008B100F019F8002070BD03F021F921688F
:10C410002B46BDE87040090C184700BFF805010025
:10C42000014B1B68184700BF14C60020014BDB6896
:10C43000184700BF14C60020014B5B69184700BFB6
:10C4400014C60020014B9B68184700BF14C600208B
:10C45000014B1B68D8687047B4C90020002330B571
:10C4600010490A681468A3420BD100234A68116876
:10C470008B4215D002EBC304A468A04208D001335C
:10C48000F6E702EBC305AD68A84201D00133EAE745
:10C4900002EBC302536823F0FF0343F0030353602E
:10C4A00030BD00BFD4C90020002230B50B4B196845
:10C4B0000C6894420FD001EBC2039D68A8420BD1D7
:10C4C0004FF003020433D3E8CF1F002903D1C3E8A0
:10C4D000C02F0028F7D130BD0132EAE7CCC90020D7
:10C4E0002DE9F041002506460F462846DFF8648016
:10C4F0003368AB4201D8BDE8F08106EBC504636840
:10C50000DBB2012B17D16268B8F80030B3EB124FE1
:10C5100011D1022FA06810D1FFF766FF90B96368B0
:10C5200023F0FF0343F0030363600120B8F80030F9
:10C530000133A8F800300135DAE70168090C03F08F
:10C5400032F8EBE70128F0D1636823F0FF0343F0F2
:10C550000203E9E788CD002038B5074D012128689E
:10C56000FFF7BEFF022104466868FFF7B9FF002805
:10C57000F4D1002CF2D138BDD4C9002070B5072801
:10C5800068D8DFE800F00B674F674B67400400F0A6
:10C590002DFD0320BDE87040FEF7CABF03202E4BDF
:10C5A000D3F81446D3F818662C4B1D78187000F099
:10C5B000F3FC2B4BEDB2186802F0FAFE012D1CD1F2
:10C5C000284B9C4210D009D8023B9C420FD001332B
:10C5D0009C420FD0244B1C600020DBE7234B9C4285
:10C5E000F8D16FF00C04F5E76FF00B04F2E76FF091
:10C5F0001504EFE76FF08504ECE73146C4F30B0058
:10C6000000F0BEFCE8E70222144B00201A7000F094
:10C61000C3FC134B186802F0CBFEDDE7FFF79CFF6D
:10C620000220B7E70D4B1A78012AD0B20ED1104A7A
:10C630001168104A8C6854604968116000221A70B1
:10C6400000F0AAFC064B186802F0B2FEFFF784FF68
:10C6500001209FE770BD00BF00A0024094CD0020E4
:10C66000BCC9002022000100D0C9002032300100E6
:10C67000B8C90020D4C9002070B5164B42681B68A9
:10C6800022F0FF0242F00202C31A42601248134A2B
:10C690000168C3F38913D2E8DF4F651CC2E8D65F97
:10C6A000002EF8D101EBC3014A6892B242EA04427B
:10C6B0004A600268032002EBC302536823F0FF03C1
:10C6C00043F00103536002F06FFE0122044BDA6075
:10C6D00070BD00BFC4C90020CCC900208ACD002095
:10C6E00000A002400A23F7B54FF47A750C4E0D4FA7
:10C6F00001933168386802F086FF044640B902F0C1
:10C7000055FE40B9012001A9FEF724FE6E30F0D19C
:10C71000204603B0F0BD0198684302F045FEE8E70B
:10C72000C0C90020C8C90020054B1B782BB9054B98
:10C730001968054B186802F066BF0020704700BFFB
:10C7400093CD0020C4C90020CCC900202DE9F04FB2
:10C7500095B038220021064603A803F031FC0223DD
:10C760000493082306932023089304230D93102396
:10C7700040250F9380230122CDE91153D5230021B9
:10C7800055480B921393FEF7B9FE0546002840F07A
:10C790009F80024651493079FFF778FC03A8FFF7E4
:10C7A0008DFC34686268B2F59D6F40F089806169E4
:10C7B000E3680B44E16903F59D630B44B3F5003F67
:10C7C0007ED82068294603F0FBFB33681C68D3F849
:10C7D0001C9004F53A72019204F16007404A04F19A
:10C7E000A40804F1200BB9F1000F5CD1C2F800B02D
:10C7F00000254FF0010A2570657084F802A0E570ED
:10C80000336840461B69636033685B69C4F814B0E1
:10C81000A360344BC4F81890C3F80080324BE76033
:10C820001F600823C4F8108084F8A43088F80150F1
:10C8300088F8025088F8035084F860307D70BD702D
:10C84000FD7002F0C8FE384602F0C5FE274B04F525
:10C850003A721A60264B04F1E8021A603168254BDF
:10C860001960254B2549C3F81046C3F81456244BCC
:10C87000244C1D80244B25601D80244B83F800A090
:10C88000234B02951D611B690293029B124B186892
:10C8900002F090FDC8B92468A4B91E4B1C70204654
:10C8A00015B0BDE8F08F9B6904F1400963643368FB
:10C8B0004846DB69C2F800B0236400F07BFB97E7D1
:10C8C0006FF01504FFF71AFCE9E76FF07304F9E75E
:10C8D0006FF02D04E3E700BFBCC900207DC5000058
:10C8E000B8C90020CCC90020C8C90020C4C9002094
:10C8F000C0C90020B4C9002000A00240F0490200D5
:10C900008ACD0020D0C9002088CD002094CD002001
:10C910000056004093CD002070B5164B42681B684E
:10C9200022F0FF0242F00102C31A42601248134A89
:10C930000168C3F38913D2E8DF4F651CC2E8D65FF4
:10C94000002EF8D101EBC3014A6892B242EA0442D8
:10C950004A600268032002EBC302536823F0FF031E
:10C9600043F00103536002F01FFD0122044B5A60A3
:10C9700070BD00BFC0C90020C8C900208ACD0020FA
:10C9800000A0024010B5FFF7ADFE012400220321F4
:10C99000047081704270C270FFF7BEFF054B1C70BF
:10C9A00002F02CFEBDE81040034B47F230511868EE
:10C9B00002F000BD93CD0020BCC9002010B50A4B89
:10C9C00004461B78032B0ED0FFF78CFE58B10121D3
:10C9D000002201700221846042708170C270BDE843
:10C9E0001040FFF799BF10BD94CD00202DE9F34111
:10C9F00005460020174688461E4602F02BFE0246DA
:10CA000040B915B1284602F04FFE6FF00B0002B09E
:10CA1000BDE8F0816FF05803002403730423056020
:10CA20000E4D037244738473C47344728472C4726F
:10CA3000C0F80480394603202C7002F027FE4FF026
:10CA4000FF3301932B78B34201D10020DFE70220AE
:10CA500001A9FEF77FFC0028F4D0D8E795CD00208F
:10CA6000F8B5054600240F4F57F8046B28463146A9
:10CA700003F067FA28B90134042CF5D14FF4803063
:10CA80000DE06CB1A31E012BF8D83046FBF7C4FCB7
:10CA90000A220021284401F0C3FA40EA0440F8BD0C
:10CAA0002046FCE7100601002DE9F74300258146EA
:10CAB0000F461048294690461E46019301F06EFD30
:10CAC000041E11DB0134204602F0ECFDC9F8000021
:10CAD00068B1334642462146019601F05FFD284683
:10CAE0003C6003B0BDE8F0836FF01500F9E76FF02C
:10CAF0000B00F6E7B00301000FB47FB5089C00F00F
:10CB000051FA00282FD0002C30D01B4E1B4B306820
:10CB1000196802F04FFC60BB224609AB03A902A8CA
:10CB20000193FFF7C1FF0446A0B9DDE9020102232A
:10CB30000122FFF75BFF044660B9114D2B681868AE
:10CB4000FFF78EFF2B680446186802F0A9FD2868DD
:10CB500002F0A3FD306802F02BFC204604B0BDE8D3
:10CB6000704004B070474FF0FF34F6E76FF00D04EB
:10CB7000F3E76FF00A04F0E7E8C90020ECC90020F1
:10CB8000E4C9002038B5C3680446A72B03D0206849
:10CB900002F086FD08E0032908D0042926D00229E6
:10CBA00002BF0122154B1A70002038BD134B1A78B2
:10CBB000022A06D1006808B102F072FD0020C0B25E
:10CBC000F3E70F4D2A685AB10068904700232068A8
:10CBD0002B6002F065FD0B4B186802F0E9FBEDE7F6
:10CBE000094A1060022201201A70E8E7074B1B680F
:10CBF000002BCCD000689847C9E700BF95CD002036
:10CC0000DCC90020E8C90020E4C90020E0C90020F8
:10CC100030B5024600236425054905FB03F460187E
:10CC20000C59944203D00133082BF6D1002030BDBB
:10CC3000F0C900202DE9F843021E104C18BF012254
:10CC400006460025A0464FF064090D4B0D4F1A70A3
:10CC50002368BB420AD009FB05831A7F66F386125C
:10CC60001A77636B13B1204602F05AFD0135082D87
:10CC700004F16404ECD1BDE8F88300BFF0C90020E2
:10CC800096CD00201EF1AD1B70B500236426074A27
:10CC900006FB03F5AC1855590133854202BF257FC9
:10CCA00061F3C7152577082BF2D170BDF0C90020BC
:10CCB0000123034A1370034A10601846704700BFEF
:10CCC00097CD002010CD002010B543690C465BB114
:10CCD0000B7F6FF304130B77406900F09BF8034B55
:10CCE000A061186802F064FB002010BD14CD002084
:10CCF00010B50B7F0C466FF304130B77006958B91E
:10CD0000DBB223F0280343F028030B77044B1868A9
:10CD100002F04EFB002010BD00F07CF8A061F5E7AA
:10CD200014CD00202DE9F341DFF8E4800546D8F862
:10CD30000000019102F03EFB074650B1019B002B21
:10CD400063D11023AB614FF0FF37384602B0BDE826
:10CD5000F081286CA8B1FBF75FFB461C304602F05F
:10CD600079FC044678B9284602F016FD08B169231B
:10CD7000AB61D8F8000002F01BFB6920FEF7B4FBA2
:10CD8000E1E73E46EAE72B680422036100230272D2
:10CD900043728372C37295F8472005F14401013252
:10CDA00092008260143003F0FEF8E6B13246296C3E
:10CDB000206803F0AAF866602B7F042043F010037C
:10CDC000224647F281012B7702F060FC284602F0F0
:10CDD000E3FC0028B9D1284602F0DAFC40B9A86982
:10CDE0000028B2D0CAE726706670A670E670E2E747
:10CDF000022001A9FEF7AEFA10F10B0F05D00028B2
:10CE0000E9D00028B8BF4042B8E77420B6E700BFB9
:10CE100014CD002070289ABF024B53F8200002481E
:10CE2000704700BF20060100ADBAADBA2DE9F04150
:10CE3000056807460C463DB101F47043B3F5005F49
:10CE400005D13F4BC3E900150020BDE8F0813D4E00
:10CE5000336863B144F20402914260D00BD844F2CB
:10CE6000020399424AD044F2030399424FD03868F2
:10CE700002F016FCE8E744F2012221F480739342A9
:10CE80000FD044F203139942F1D12F4C206808B11E
:10CE900002F006FC01222D4B1A7025600420336835
:10CEA00024E0DFF8AC80D8F8000008B102F0F8FB0D
:10CEB00044F201339C420CBF0322022295F85170C8
:10CEC000244B254C1A70C8F8005017F00805336839
:10CED00022780DD01AB90520984701232370FB074B
:10CEE00002D5022033689847012033689847ABE7A2
:10CEF000002AF4D0062098472570F0E7174C2068E8
:10CF000008B102F0CDFB032033682560EEE70E4C3C
:10CF1000206808B102F0C4FB00220C4BBCE72A7861
:10CF2000032AA4D8DFE802F0020507090720984782
:10CF30009DE70820FBE70920F9E70A20F7E700BF93
:10CF400028CD002018CD00201CCD002098CD002039
:10CF500024CD002099CD00209ACD002020CD0020A6
:10CF600038B5064B1C6834B1436885890268C189AD
:10CF70009BB2E8B2A047002038BD00BF30CD0020F2
:10CF800007B5044BCDE900011B686846984703B01C
:10CF90005DF804FB34CD0020014B1870704700BFD2
:10CFA0009BCD0020024B1878431E584258417047D1
:10CFB0009BCD00200021074B01221970064B1970F0
:10CFC000064B1960064B1960064B18600648FEF7C1
:10CFD00095BA00BF9CCD00209DCD00203CCD002007
:10CFE00040CD002050CD002038CD002070B42D4B16
:10CFF0001B68196958691A7C00221A745C7C5A747F
:10D000009C7C9A74DC7CDA741C7D1A755C7D5A7584
:10D010009C7D03299A75DC7DDA7529D0042933D0EB
:10D0200001292FD18568204E954210D101211A7A0D
:10D0300000221972597A5A72997A9A72DA7A6FF0D2
:10D040005F02DA72194B70BC186802F0B1B9911C1A
:10D0500000EB81014C682178622907D0633918BF41
:10D060000121490046F821400132DDE70121F9E7BD
:10D07000187A1972597A5A72997A9A72DA7A6FF022
:10D080005F02DA7270BC7047187A1972597A5A7254
:10D09000997A9A72DA7A6FF05F02DA720122044B9F
:10D0A0001A70EFE750CD002044CD002038CD00208D
:10D0B0009DCD00202DE9F041054686B00E464FF08B
:10D0C0002003EFF3118883F31288BFF36F8F02F010
:10D0D00087FF0024224B042D1F5896BF214B224B63
:10D0E00053F825300122CDE90434204B2046CDE908
:10D0F00001431F4923460395009402F02CFD6EB1B5
:10D10000F369C3F308034BB11A4B0122CDE9014384
:10D11000204623461649009402F01DFD2FB13846E3
:10D1200002F0A5FD08B1037803B91348134B01229F
:10D1300002930023CDE90370CDE9003318460C4972
:10D1400002F009FD31462846FEF73CFA88F31188C3
:10D15000BFF36F8F384606B0BDE8F041FCF79EBDC7
:10D1600008000000E80701006D10010083100100B5
:10D1700080030100AB1001007B100100CC10010006
:10D18000104B70B553F82040013053F82060A64290
:10D1900000D870BDD4E9003595B153B12846984701
:10D1A00038B10028B8BF4042FF28A8BFFF20EB6875
:10D1B0001870EA68537843F0010353700834E6E7C7
:10D1C0009847FBE7FC070100012208B5094B032043
:10D1D0001A70FFF7D5FF00F01DFF0420FFF7D0FF06
:10D1E00000F018F9FBF720F9034A137B23F0010341
:10D1F000137308BD9ECD002028C7002008B5034842
:10D20000034A0021121A02F0B6FC08BD88C60020AD
:10D21000A0CD00200023012270B586B0CDE9042303
:10D220000F220193CDE9023214234FF4A072044679
:10D23000114D124E03FB0055114906EBC01602FBBF
:10D240000011104B3046009500F0A6F8737B2C744B
:10D2500023F0040373730C4B013403EBC4236B60A2
:10D260000A4BEE60D3E8EF1F0131C3E8E21F002A4A
:10D27000F8D106B070BD00BF58CD0020A8C6002070
:10D28000A0D5002073FC0000A0CD002054CD0020CC
:10D2900080B50020A6B0FFF773FF2F4B03F50062A7
:10D2A00082F3088883F30A880024E0232B4D2C4E58
:10D2B00085F82230EC772C766C76AC7685F82040B9
:10D2C0006B6A284F43F4E0236B6285F82340FCF738
:10D2D00049FCFBF7C5FF4FF0FF33AB62EB62FCF795
:10D2E00079FEFCF7F1FCFBF7FBFC40F2011306AD05
:10D2F0002846ADF82430CDE91E4400F085FEB56027
:10D3000002F01DFC0120FFF73BFF0220164DFFF746
:10D3100037FF00F015FC154B756105930123144987
:10D320004FF48062CDE9034328463B46CDE90144F2
:10D33000009400F031F806466A7B284622F0040289
:10D340006A7302F0F0FC2046FFF764FF3A4631466C
:10D350002846FCF7C7F800BFA0CD002000ED00E094
:10D3600058CD0020C9D1000028C700202E1101008F
:10D37000E0D6002038B5064C064DAC4201D3002063
:10D3800038BD2046D4E9011202F0F9FB1434F4E769
:10D390005CC6002070C600202DE9F043984685B099
:10D3A00000F15803C0E91633109B002603730423D1
:10D3B000073222F0070543730F9B01EB05090F4667
:10D3C00083734946C0E906668660C6730446FCF767
:10D3D000B7F80E9B073020F00700A066C4E9187567
:10D3E00002930D9BA9EB000901930C9B4A46009305
:10D3F000394643462046FCF757F8054B66659B685F
:10D4000003B1DB6E4846E36605B0BDE8F08300BFBC
:10D4100058CD00202DE9F043294C2A4D87B02646EF
:10D42000AE4204F12C040FD300F05AFB4FF4004637
:10D4300040F2E737224CDFF89090AC4220D307B09F
:10D44000BDE8F04300F060BB54F8043C059354F889
:10D450000C3C049354F8103C039354F8143C02938E
:10D4600054F8183C019354F81C3C009354E90923E8
:10D4700054E90B01FFF790FF54F82C3C5E65CEE7B2
:10D48000636A5A1C0DD00021384623EAE373C3FBBC
:10D49000060151EAC333D4F8008004D1404600F0BD
:10D4A000CFFA2C34C9E74FF47A720023FAF74CFE16
:10D4B00002460B4608F11800494600F0ABFCF0E7C5
:10D4C00000030100000301008BFD00002DE9F34182
:10D4D000044617461E464FF02003EFF3118883F3EE
:10D4E0001288BFF36F8FC368334A7BB1806891683D
:10D4F000884219D057EA060318D188F31188BFF380
:10D500006F8F6FF00F0002B0BDE8F081916891F964
:10D510000E100133E36093682161A36088F31188E2
:10D52000BFF36F8F0020EEE72169F2E791F90E104B
:10D5300090F90E306FF07E029942A8BF19469142D1
:10D54000B8BF11468B422EDD02F09FFB05462246F6
:10D550004146CDE90076194800F0FCF90028E1D0F9
:10D560004FF02003EFF3118683F31288BFF36F8F20
:10D57000A068D0B1236821699C420AD04BB193F9CD
:10D580000E309942A8BF19466FF07E039942B8BF8A
:10D59000194602F07AFB40B13146084800F03EFAE5
:10D5A0006FF00A00AFE70025D1E7002DF4D186F334
:10D5B0001188BFF36F8FF3E758CD00209FCD002077
:10D5C00038B5836804466BB3194A926893422CD1EC
:10D5D000C368012B03D9013BC360002038BD4FF065
:10D5E0002003EFF3118583F31288BFF36F8F016976
:10D5F000806802F04AFB204602F0CBFBA06058B1E5
:10D6000090F90E2022610022826702F08CFB2946ED
:10D61000084800F003FAE0E7E06085F31188BFF303
:10D620006F8FDAE76FF01500D8E74FF0FF30D5E7DE
:10D6300058CD00209FCD002038B504464FF0200380
:10D64000EFF3118583F31288BFF36F8F02F0A1FB14
:10D6500048B10022826702F066FB2946BDE83840E7
:10D66000064800F0DBB9D4E902329A4218BF013310
:10D67000A36085F31188BFF36F8F38BD9FCD002065
:10D6800013B54FF02004EFF3118184F31288BFF338
:10D690006F8F846844B1013C846081F31188BFF3CB
:10D6A0006F8F002002B010BD52EA030406D181F34F
:10D6B0001188BFF36F8F6FF00F00F3E7CDE9002300
:10D6C0000246024800F046F9ECE700BF9FCD00207B
:10D6D000C3897F2B12D80A4B1B6863B1094B90F9A1
:10D6E0000E201B689A4209DB437BDB0606D1064B02
:10D6F000C31A18BF012303F0010070470023FAE7A3
:10D7000080CD00207CCD0020A8C600200122044B43
:10D71000C01A044BC0105843034B1A54704700BF43
:10D72000A8C70020ABAAAAAA9FCD002070B50E4BB7
:10D730000E4C1E7C054606EB460304EBC304204654
:10D7400002F081FB00220A4B28469A55FFF7C0FFE2
:10D7500048B1084B2046BDE870401A680649013AB6
:10D76000D31700F057BB70BD58CD0020A8C70020CC
:10D770009FCD002080CD00200DD7000038B50D4D85
:10D780002B4653F8184F9C4200D004B9EC68AB68A4
:10D7900038B95A7BD20604D1A26912B9DA897F2A34
:10D7A00005D89C4202D02046FFF7C0FF23466B619C
:10D7B00038BD00BF58CD002070B590F90D2001464E
:10D7C000002A437B04DA03F07F03437302F071FA0B
:10D7D000154A4B7B104663F07F034B7350F8183F9C
:10D7E000D469834208BF002323B9C1E90004216042
:10D7F000D1610CE091F90E5093F90E60B5420ED054
:10D80000AE420CDD5868C1E9003001605960906893
:10D81000BDE87040431A58425841FFF7AFBF9C42E1
:10D82000E3D01B68E0E700BF58CD002070B490F94A
:10D830000D30427B002B29DBD30627D183692BBB1C
:10D84000134962F07F0242730A4652F8184F94421D
:10D8500018BF2346CC6923B9C0E900242060C86101
:10D860000CE090F90E5093F90E60B5420AD0AE422A
:10D8700008DD5A68C0E9003210605860002070BCB2
:10D88000FFF77CBFA342E7D01B68E4E770BC70479A
:10D8900058CD002008B590F90D200146002A437BA1
:10D8A00004DA03F07F03437302F003FA044B986831
:10D8B000431A58425841BDE80840FFF75FBF00BF18
:10D8C00058CD002070B515461C46064602F003FAF6
:10D8D000B4F1FF3F08BFB5F1FF3F08D02A46234609
:10D8E00006F118000249BDE8704000F093BA70BD1F
:10D8F0008BFD000038B54FF02003EFF3118583F363
:10D900001288BFF36F8F104B104A9C681068A042BA
:10D9100006D1FFF70BFF85F31188BFF36F8F38BD7A
:10D9200000211B7C11600A4AD35C002BF3D02046F7
:10D93000FFF7CEFE0028EED0637BDB0602D1204647
:10D94000FFF73AFF2046E4E758CD002078CD0020CD
:10D950009FCD002070B50C480C4D86680C462E609B
:10D960001146DDE904234FF02006EFF3118586F31D
:10D970001288BFF36F8F8068FFF7A4FF2046BDE8D1
:10D980007040FBF72FBD00BF58CD002078CD0020A0
:10D99000F8B504464FF02003EFF3118683F31288A5
:10D9A000BFF36F8F437B49B2DA0619D18569BDB9E0
:10D9B00003F07F03437302F07CF9437B164A63F064
:10D9C0007F0343731346817353F8180F984218BFAF
:10D9D0000546D0695DB9C4E900300460D46111E046
:10D9E0000020A17386F31188BFF36F8FF8BD95F9FE
:10D9F0000E70B9420BD08F4209DD6B68C4E9005349
:10DA00001C606C600120FFF7B9FE0120EAE7A84224
:10DA1000E1D02D68DEE700BF58CD002049B9EFF313
:10DA2000058030B9054B5A699B689A4201D0FBF7D3
:10DA3000D9BC81F31188BFF36F8F704758CD002098
:10DA400010B54FF02002EFF3118482F31288BFF378
:10DA50006F8F427B510704D484F31188BFF36F8F1B
:10DA600010BD22F004024273FFF7E0FE2146BDE83C
:10DA700010400148FFF7D2BFA0CD002070B504468A
:10DA8000183002F0E0F94FF02003EFF3118683F332
:10DA90001288BFF36F8F94F90D20637B002A05DA9B
:10DAA00003F07F032046637302F003F90B4D637BA1
:10DAB000A86843F010036373031B58425841FFF7F3
:10DAC0005DFE86F31188BFF36F8FAB68A34203D16D
:10DAD000BDE8704002F09DB970BD00BF58CD002078
